:104D29001250351251C77BFE7A007900E47804F2FB
:104D390008F27D40123509D3EF94007480948040C5
:0C4D4900E57BFE7A00790012000380DA9E
:10503500759850438E40538EFE53890F758BD075EE
:075045008DFFC2ABD28E22E9
:0851A4008F993099FDC2992298
:104C350078EAEBF208EAF208E9F278EAE2FB08E240
:104C4500FA08E2F9120C5E601A78EAE2FB0808E25B
:104C5500F92401F218E2FA3400F2120C5EFF125147
:044C6500A480D7222E
:104C6900EFC4540FFEEF540FFDEEC3940A74809401
:104C790080EE5004243080022437FF1251A4EDC382
:104C8900940A74809480ED5004243080022437FF04
:034C99001251A411
:014C9C0022F5
:1047FF007840EBF208EAF208E9F208ECF208EDF281
:10480F00E408F208F27843E2FE08E2FF08E2FC084F
:10481F00E2FDC39FEC9E50277840E2FB08E2FA08C6
:10482F00E2F98D828C83120C77FF124C697F201274
:0F483F0051A47846E22401F218E23400F280C658
:01484E002247
:04448B00AB07AA06CB
:10448F00E478EFF2EB4A70057F300251A4D3EB943E
:10449F0000EA9400402C7C007D0AAF03AE02120CA0
:1044AF00EAED2430FF78EFE2FE04F274EA2EF8EF23
:1044BF00F27C007D0AAF03AE02120CEAAA06AB072C
:1044CF0080CB78EFE2D3940074809480400DE21497
:0B44DF00F224EAF8E2FF1251A480E78B
:0144EA0022AF
:0851AC003098FDC298AF992272
:0D3509007800EBF208EAF208E9F208EDF2B2
:10351600E47806F2780A803C7803E214FF7806E243
:10352600C39F5076309832C29808E599F2E2FF645C
:103536000A6067EF640D60627800E2FB08E2FA0851
:10354600E2F97806E2FE04F28E82758300EF120C31
:10355600B6E47808F208F280BF7804E2FE08E2FFDB
:10356600D39400EE940040B07809E22401F218E208
:103576003400F2C308E29F18E29E501EE4780AF275
:1035860008F2C3780BE294E818E29403508A08E242
:103596002401F218E23400F280E87800E2FB08E247
:1035A600FA08E2F97806E2FFF582758300E4020C78
:0135B600B65E
:0648EB008153A08154007E
:104CFC00E4FDFCC3ED9FEC9E5022E478F9F208F23F
:104D0C0078FAE22401F218E23400F208E2B488F0F6
:0C4D1C0018E2B413EB0DBD00010C80D7B1
:014D28002268
:0C514A0090FE82E030E6F9E054BFF02255
:104F8D0053B1F353B2F353C9CF43CA30C2CCC2CDE0
:0F4F9D0043BA8090FE8074F9F090FE82E4F02217
:0951890090FE817401F002514A0C
:0951920090FE817406F002514AFE
:0E51130090FE86EFF090FE817402F002514A89
:0F51040090FE817404F012514A90FE87E0FF2262
:0D4F2B00E47854F212518918E2FF1251137C
:104F380090FE817403F012514A90FE82E030E10243
:044F4800D322C3228B
:10504C003000047F0180027F0090FE82EFF090FE22
:07505C00817405F002514AC6
:10493600AB07AA06124F2B5005087401802AEA120B
:104946004F34500678547402801EAF03125113126E
:104956004F38500678547403800EAF051251131267
:104966004F38500878547404F20251921251927FD3
:07497600057E00124CFC223B
:0447AE00AD07AC06A1
:1047B200124F2B5005087401802CEC124F34500616
:1047C200785474028020AF05125113124F385006EC
:1047D2007854740380101251897853E24401124FC5
:1047E20034500A087405F21251927F0022125104C9
:0C47F200AE07D20012504C125192AF06DC
:0147FE002298
:09519B00EF25E0FF7853EFF2224A
:0F49C1007871EEF208EFF208ECF208EDF2A903BC
:1049D000E408F208F27873E2FE08E2FF08E2FC085D
:1049E000E2FDC39FEC9E501B7872E22DFF18E23C63
:1049F000FEAD011249367876E22401F218E2340065
:034A0000F280D26F
:014A03002290
:104708007847EEF208EFF208EBF208EAF208E9F26D
:104718007849E2FB08E2FA08E2F9120C5E602878B0
:104728004708E2FF2401F218E2FE3400F27849E279
:10473800FB0808E2F92401F218E2FA3400F2120C3C
:104748005EFD12493680C97847E2FE08E2FFE4FDC3
:03475800024936DD
:1042ED00784CEEF208EFF208EBF208EAF208E9F288
:1042FD00E47852F218E27002FF227851E214FF08BE
:10430D00E2C39F502D784C08E2FF2401F218E2FE23
:10431D003400F21247AE784EE2FB08E2FA08E2F9F9
:10432D007852E2FE04F28E82758300EF120CB6EF26
:10433D0070C8784EE2FB08E2FA08E2F97852E2FF23
:09434D00F582758300E4120CB640
:014356002244
:104E5500E47837F208F27837E2FE08E2FFC3EE9411
:104E6500205012E4FD1249367838E22401F218E2A6
:054E75003400F280E1B1
:014E7A002215
:0651BC0055504153530061
:104D550078EDEEF208EFF22401FFE43EFE1247AED5
:104D6500EF7F00FEC007C00678EDE2FE08E2FF1205
:0C4D750047AEEFFDD0E0FED0E04DFF2285
:104EE700787BEEF208EFF208ECF208EDF2124936A1
:104EF700787CE22401FF18E23400FE787DE2FD02AF
:024F0700493629
:10489E007867EBF208EAF208E9F27E007F287D00E5
:1048AE007867E2FB08E2FA08E2F91211977867E2FC
:1048BE00FB08E2FA08E2F97401120CA47867E2FB35
:1048CE0008E2FA08E2F9900001E4120CB690000238
:0D48DE007410120CB69000037408020CB6A2
:0A258D0078E9EBF208EAF208E9F23F
:102597007F507E0012519B7F017E001247AE78E983
:1025A700E2FB08E2FA08E2F9EF120CA47F4E7E0084
:1025B7001247AE78E9E2FB08E2FA08E2F990000177
:1025C700EF120CB67F4F7E001247AE78E9E2FB08A8
:1025D700E2FA08E2F9900002EF120CB67F507E0093
:1025E7001247AE78E9E2FB08E2FA08E2F990000345
:1025F700EF120CB6E478ECF278ECE2FF7E00C394BD
:102607001074809480502BEF2402FFEE33FE1247A4
:10261700AE78E9E2FB08E2FA08E22404F9E43AFAC0
:1026270008E27C0029F9EC3AFAEF120CA4E204F272
:1026370080C6E478ECF278ECE2FF7E00C394127473
:10264700809480502BEF243CFFEE33FE1247AE7888
:10265700E9E2FB08E2FA08E22414F9E43AFA08E2AC
:102667007C0029F9EC3AFAEF120CA4E204F280C6D6
:1026770078E9E2FB08E2FA08E2F9900025E4120C97
:10268700B67F227E00124D5578E9E2FB08E2FA0890
:0B269700E2F9900026EE8FF0020DC16A
:0A312D00787BEBF208EAF208E9F201
:10313700E4787FF2787BE2FB08E2FA08E2F9900094
:1031470001120C77FF120C5E6FFF900002120C77D2
:103157006FFF900003120C776F787FF2E418F27814
:103167007EE2FFC3941074809480502908E2FE78B1
:103177007BE2FB08E2FA08E22404F9E43AFAEF7C7E
:103187000029F9EC3AFA120C5EFFEE6F787FF2181D
:10319700E204F280CAE4787EF2787EE2FFC39412FA
:1031A70074809480502908E2FE787BE2FB08E2FAFB
:1031B70008E22414F9E43AFAEF7C0029F9EC3AFA28
:1031C700120C5EFFEE6F787FF218E204F280CA7885
:1031D7007FE2FD787BE2FB08E2FA08E2F99000263D
:0F31E700120D6AFBAAF0EA6BFFED6FFF787FF223
:0131F60022B6
:0A2470007877EBF208EAF208E9F2CF
:10247A007F507E0012519B7877E2FB08E2FA08E26D
:10248A00F9120C5EFD7F017E001249367877E2FB75
:10249A0008E2FA08E2F9900001120C77FD7F4E7EFD
:1024AA00001249367877E2FB08E2FA08E2F990006E
:1024BA0002120C77FD7F4F7E001249367877E2FBD5
:1024CA0008E2FA08E2F9900003120C77FD7F507EC9
:1024DA0000124936E4787AF2787AE2FDFF7E00C388
:1024EA00941074809480502CEF2402FFEE33FE780F
:1024FA0077E2FB08E2FA08E22404F9E43AFA7C00FB
:10250A00E92DF9EC3AFA120C5EFD124936787AE2B4
:10251A0004F280C4E4787AF2787AE2FDFF7E00C39E
:10252A00941274809480502CEF243CFFEE33FE7892
:10253A0077E2FB08E2FA08E22414F9E43AFA7C00AA
:10254A00E92DF9EC3AFA120C5EFD124936787AE274
:10255A0004F280C47877E2FB08E2FA08E2F9900014
:10256A0026120D6AFDACF07F227E00124EE77877C4
:10257A00E2FB08E2FA08E2F912312DAD07E4FFFEA8
:03258A00024936CD
:0A3EF6007867EBF208EAF208E9F23F
:103F000008E2FB08E2FA08E2F91250BA786EEFF222
:103F1000D394117480948040037411F2E4786DF2AC
:103F2000786DE2FFC3941274809480504308E2FEDF
:103F3000EFC39E5017786AE2FB08E2FA08E2F9083C
:103F4000E2F582758300120C77FF80027F007867AC
:103F5000E2FB08E2FA08E22414F9E43AFA786DE2A6
:103F60007C0029F9EC3AFAEF120CA4E204F280B0DA
:013F7000222E
:1035B7007877EBF208EAF208E9F27E007F107D00E7
:1035C7002404F9E43AFA121197787AE2FB08E2FA4E
:1035D70008E24A4B602F787AE2FB08E2FA08E2F940
:1035E7001250BAEF4E601E787AE2FB08E2FA08E260
:1035F700F8AC02AD037BFF7A5179BC12117AEF3335
:1036070095E04F70117877E2FB08E2FA08E2F912C9
:103617000C5E54F78044787AE2FB08E2FA08E2F994
:103627001250BAAD077877E2FB08E2FA08E2240401
:10363700F9E43AFA7881EBF208EAF208E9F2787AE3
:10364700E2FB08E2FA08E2F9121DF27877E2FB08DA
:0E365700E2FA08E2F9120C5E4408120CA422FA
:0E5121007F507E0012519B7F017E000247AE40
:10507A007855EFF27F507E0012519B7855E2FD7F02
:06508A00017E0002493620
:0E512F007F507E0012519B7F227E00024D5564
:104FCA0012512FC3EF94FFEE94FF50050FBF00015B
:0C4FDA000EAD07AC067F227E00024EE701
:104E030055504153530000000000010101011000FF
:104E1300100002020C100100030000000101040055
:0A4E2300000001010500000001017C
:104DD900EF24FE6012146014146016146018240481
:104DE90070147E107F00227E207F00227E407F008B
:0A4DF900227E807F0022E4FEFF22EC
:104FE600EFC39406748094804002E4FFEF75F006E8
:0C4FF600A42409F9744E35F0FA7BFF2268
:064E2D007D107C007E00F8
:104E33007874EEF208EFF208ECF208EDF21249365C
:104E43007875E22401FF18E23400FE7876E2FD0271
:024E53004936DE
:104D81007856EEF208EFF22401FFE43EFE1247AE40
:104D9100EF7F00FEC007C0067856E2FE08E2FF1270
:0C4DA10047AEEFFDD0E0FED0E04DFF2259
:0351C700024F8D07
:0A1F94007867EBF208EAF208E9F2C0
:101F9E0078707401F2786DE2FF124DD908EEF208F6
:101FAE00EFF24E7004FE7F0D22786AE2FB08E2FA31
:101FBE0008E24A4B603A786AE2FB08E2FA08E2F974
:101FCE001250BAD3EF9400EE94004024786AE2FBEC
:101FDE0008E2FA08E2F8AC02AD037BFF7A4E790311
:101FEE0012117AEF3395E04F60067870E24408F2F2
:101FFE007F507E0012519BE4FBFD7C20FFFE1249B8
:10200E00C17870E2FD7F017E00124936E4FD7F4EFD
:10201E00FE1249367D107F4F7E001249367D087FB5
:10202E00507E001249367D517F517E00124936781E
:10203E006DE2FD7F527E00124936786EE2FC08E2B8
:10204E00FD7F537E00124E33E4FDFC7F57FE124E91
:10205E0033786EE2FC08E2FD7F597E00124E337F2C
:10206E005B124E2D7F5D124E2DE4FD7F5FFE1249F9
:10207E00367D017F607E001249367D007C1C7F61BB
:10208E007E00124E33796EE3C4F854F0C868FE0930
:10209E00E3C4540F487803CEC313CE13D8F9FDAC66
:1020AE00067F637E00124E337D007C017F657E00CD
:1020BE00124E337D007C107F697E00124E33E4FD9C
:1020CE00FC7F6DFE124E337D0D7F6F7E0012493602
:1020DE00786EE2FE08E2FF786DE2FD123BC3E4FE8D
:0120EE00FFF2
:0120EF0022CE
:0A3BC3007871EEF208EFF208EDF25F
:103BCD007F517E0012519B7D5AE4FFFE1249367DD6
:103BDD00017F017E001249367873E2FD7F027E007F
:103BED001249367871E2FC08E2FD7F037E00124E29
:103BFD00337D207C007F057E00124E33E4FDFC7F7B
:103C0D0007FE124E337D107C007F097E00124E336D
:103C1D007D107C007F0B7E00124E33E4FD7F0DFE88
:103C2D00124936E4FD7F0EFE1249367873E2645B6D
:103C3D00FD7871E2FA08E2FBEAFFEB6F6DFD7F0F95
:053C4D007E0002493673
:10405C00124FE67858EBF208EAF208E9F2AF0508DD
:10406C00ECF208EFF2900001120C776401703478D6
:10407C0058E2FB08E2FA08E2F9900004120C77FB14
:10408C00785BE2FE08E2FFAD037C00120CEAEF2441
:10409C0001FFE43EFEAD037C00120CD8785BEEF21F
:1040AC0008EFF27858E2FB08E2FA08E2F990000314
:0E40BC00120C77FF785CE22FFF18E23400FE52
:0140CA0022D3
:104EA100124FE6900003120C77D39DE49C4004E47A
:104EB100FEFF22900003120C77FFC3ED9FFFEC94DD
:024EC10000FEF1
:014EC30022CC
:1050CF007F507E0012519BE4FB7D107C1BFF7E0105
:0350DF000249C1C2
:0A5161007F507E0012519B024E5554
:1048F100500070417263686976756D553132333499
:1049010035363720202100000000000000000000A3
:104911000000000000000000000000000000000096
:0649210000000000000090
:104A7C007881E4F2087400F2087421F27D10121DA2
:104A8C00F27F0FEFC3942074809480501474212F04
:104A9C00F974702FF582E43400F583E047F70F804A
:074AAC00E27B007A00792192
:014AB30022E0
:1050F4006A09E667BB67AE853C6EF372A54FF53A65
:0D1DF200787DEBF208EAF208E9F208EDF264
:101DFF00D394107480948040037410F2E4FFEFC307
:101E0F009410748094805016EF9050F493FEEF244A
:101E1F009EFDEE6DFE74082FF8A6060F80E0E4FF1E
:101E2F007880E2FEEFC39E5062787DE2FB08E2FA13
:101E3F0008E2F98F82758300120C77FEEF75F01DA3
:101E4F00A46E7884F2E2FEEF540F2408F8EE26F623
:101E5F00EF2407540F2408F9EE33333354F8FE7888
:101E6F0084E2C41354074E67F7EF540F2408F8E6C3
:101E7F00FE25E0FDEEC413131354014DFEEF2403B2
:101E8F00540F2408F8EE26F60F80957880E2241080
:101E9F00781766F6E4FEEEC39408748094804003CE
:101EAF00021F4AE4FFEFC3941074809480503D7476
:101EBF00082FF8E67885F2EF04540FFD2408F8E6B2
:101ECF00F97886F218E2FC2924372EFB74082FF8D4
:101EDF00A603ECC43354E0FC7885E2131313541FAC
:101EEF004CFC74082DF8EC66F60F80B97F10AD0727
:101EFF001FD3ED940074809480403C74082FF8E653
:101F0F007885F2EF240F540FFD2408F8E6F9788650
:101F1F00F218E2FC29245CFB74082FF8A603EC25C9
:101F2F00E025E0FC7885E2C4131354034CFC7408DD
:101F3F002DF8EC66F680B70E021EA5E4FFEFC394F2
:101F4F001074809480503D74082FF8E6FE7885F267
:101F5F00EF2408540F2408F8E6FD7886F218E2FC07
:101F6F00C454F0FBECC4540F4BFCEE6D6CFE788147
:101F7F00E2FB08E2FA08E2F98F82758300EE120C99
:041F8F00B60F80B950
:011F9300222B
:101846002B000D0A00455252003000444154412BF2
:10185600002C003D005B003B005D280029007C0059
:10186600454F460D0A00524553554C5400494E49C2
:10187600543D302B0056312E302E3000494E464F07
:101886002B00454E41424C45440044495341424C8D
:1018960045440041455300584F5200434553415279
:1018A60000524334004E4F4E005354415455532B6F
:1018B6000055534147452B00454E43494E464F2B55
:1018C600004145533132385F4342432B424C4F432C
:1018D6004B004145533132385F47434D2B4145411B
:1018E6004400584F522B53545245414D00434145F5
:1018F6005341522B53545245414D005243342B53BE
:10190600545245414D004E4F4E452B53545245417E
:101916004D00313600310031320056455253494FA1
:101926004E2B0050312E300053312E30004155548D
:10193600482B300D0A00415554482B320D0A004100
:101946005554482B310D0A00415243484956554DCE
:1019560000424C4F434B003F69643D0044415441B3
:101966002B5B00290D0A00415400494E495400459D
:1019760043484F00494E464F005354415455530077
:10198600555341474500454E43494E464F0056453F
:101996005253494F4E0041555448005041535357F6
:1019A6004F5244004352454154450056455249461C
:1019B6005900454E41424C450044495341424C452D
:1019C600005645524946594F5554004348414E47E3
:1019D600450052455345540052454144004E414D41
:1019E60045004B455900575249544500524157004E
:1019F60044454C45544500555044415445004745DF
:101A06005400414C4C0053495A4500464F524D41F3
:101A16005400444556004445465241470052454607
:101A26005245534800454E43005345540053414CDC
:0C1A360054004B44460042415443480019
:0E492700826E0000816A00816D00826B0000CC
:094C0000E22404FF18E23400FE76
:104C090078F5EEF208EFF22401FFE43EFE1247AE1A
:104C1900EF7F00FEC007C00678F5E2FE08E2FF124A
:0C4C290047AEEFFDD0E0FED0E04DFF22D2
:104AB400FF18E23400FE78DBE2FB08E2FA08E2F9D0
:064AC400120D6AFDACF0CA
:104ACA0078F5EEF208EFF208ECF208EDF212493648
:104ADA0078F6E22401FF18E23400FE78F7E2FD02DC
:024AEA0049364B
:104B5C00EBF208EAF208E9F2740B786AF27BFF7A5E
:054B6C0018796CE4FD66
:104B710078E9EDF2124C357BFF7A187946124C3503
:104B810078E9E2FF7E0012448B7BFF7A18794802B4
:024B91004C35A1
:1043570078BF74FFF2087419F2745708F27828E2EC
:07436700FB08E2FA08E2F98D
:10436E0078BCEBF208EAF208E9F278BC08E2FA0847
:10437E00E24A60090808E2FA08E24A7004E4FEFF25
:10438E002278BCE2FB08E2FA08E2F8AC02AD03C008
:10439E000078BFE2FB08E2FA08E2F9D00012117AC7
:1043AE00EF3395E04F7005FE7F0180047E007F00A5
:0143BE0022DC
:0A3A9F007837EBF208EAF208E9F2CA
:103AA9004A700280787837E2FB08E2FA08E2F912F4
:103AB90050BAEFC3940274809480403F7837E2FB98
:103AC90008E2FA08E2F9120C5E6422702EEF7C001B
:103AD90024FFF582EC34FFF583120C77B4221C7EA7
:103AE9000074FF2FF582EE34FFF5837837E2FB0887
:103AF900E2FA08E2F9E4120CB6801AC3EF940174F1
:103B090080948040187837E2FB08E2FA08E2F9125B
:103B19000C5EB42208E92401F9E43AFA227837E282
:073B2900FB08E2FA08E2F9D3
:013B30002272
:082D1B00E2FB08E2FA08E2F90C
:0A2D230078BFEBF208EAF208E9F2CB
:102D2D0008120F2800000000E94A7003FEFF227808
:102D3D00BFE2FB08E2FA08E2F9120C5EFF3395E000
:102D4D00FEC3EF9430EE648094805003022DEAD3DD
:102D5D00EF9439EE648094804003022DEA120C5EEC
:102D6D00FF3395E0FEEF24D0FFEE34FFFE3395E008
:102D7D00FDFCC004C005C006C007E47F0AFEFDFCD3
:102D8D0008E2FB08E2F908E2FA08E2CBF8120DEED0
:102D9D00D003D002D001D000EF2BFFEE3AFEED397B
:102DAD00FDEC38FC78C2120F1CE47FFF7EFFFDFCAA
:102DBD0078C2E2FB08E2F908E2FA08E2CBF8D31296
:102DCD000F0B400B78C2120F280000FFFF800E780A
:102DDD00C1E22401F218E23400F2022D3C78C2085F
:062DED0008E2FE08E2FF0F
:012DF30022BD
:08501D00E2FB08E2FA08E2F9E7
:0F502500122D23D3EF94FFEE940040037FFF2260
:015034002259
:1043BF00EFFD3395E0FCC3ED9430EC6480948040C6
:1043CF0011D3ED9439EC648094805006C3EF943090
:1043DF00FF22EFFD3395E0FCC3ED9441EC64809434
:1043EF00804010D3ED9446EC648094805005EF2408
:1043FF00C9FF22EFFD3395E0FCC3ED9461EC6480BF
:10440F0094804010D3ED9466EC648094805005EF57
:07441F0024A9FF227FFF2208
:06384A0008F2087410F200
:0A38500078BFEBF208EAF208E9F293
:10385A00E478C6F2E94A7002FF2278BFE2FB08E286
:10386A00FA08E2F9120C5EFF606A900001120C7706
:10387A00606278C5E2FE08E2C39E50581243BF0850
:10388A00EFF278BFE2FB08E2FA08E2F990000112CF
:10389A000C77FF1243BF78C8EFF218E2FFF46034E6
:1038AA0008E2FEF4602EEFC454F0FFEE4FFF78C238
:1038BA00E2FB08E2FA08E2F978C6E2FE04F28E8236
:1038CA00758300EF120CB678C1E22402F218E234D2
:0838DA0000F2808678C6E2FFCF
:0138E20022C3
:0E3B3100783AEDF27837EBF208EAF208E9F2A2
:103B3F00E4FFFEE94A700122D3783FE29FEE6480F2
:103B4F00F5F018E2648095F040697837E2FB08E2FF
:103B5F00FA08E2F9C003C002C001783BE2FB08E2B9
:103B6F00FA08E2F90FEFAC0670010E14F5828C83A0
:103B7F007403120F65120F767837E2FB08E2FA082A
:103B8F00E2F9120C5EFD601108E26D600C18E22480
:103B9F0001F218E23400F280DFED60177837E2FBB4
:103BAF000808E2F92401F218E2FA3400F2E4120CE8
:033BBF00A480855A
:013BC20022E0
:0D428100EBF208EAF208E9F2786A7405F23F
:10428E007BFE7A0179BF12258D78BFE220E0028095
:0C429E003878BFE230E345786DE27040F4
:1042AA0078E804F2E418F278E7E2FFC39410748025
:1042BA009480501474C32FF8E26006E478E8F28020
:1042CA000778E7E204F280DF78E8E2700E7BFF7A93
:1042DA0018794B7D03124B717F0022786D7401F2BD
:0242EA007F0152
:0142EC0022AF
:104F6D007BFE7A0179BF12258D78BFE230E10E7B91
:0F4F7D00FF7A18794B7D0E124B717F00227F0156
:014F8C002202
:0551C200786DE2FF2200
:104F0900786DE2601CD318E2940018E29400401115
:104F190008E224FFFFF218E234FFF24F7003786DC4
:024F2900F22272
:0851B400786EEEF208EFF22222
:0820F000E2FB08E2FA08E2F944
:0E20F80078C6EBF208EAF208E9F28F828E83D6
:102106007C007D25120CD8E42F78CAF2EE34011833
:10211600F2AE83C3EE940140037F002278C9E2FE4B
:1021260008E2FF124C0978C6E2FB08E2FA08E2F977
:10213600EE8FF0120DA278C6E2FB08E2FA08E2F989
:10214600120D3FFFAEF0BEFF06BFFF037F0022E485
:1021560078CBF278CBE2FFC3941474809480503726
:1021660018E22402FD18E23400FC7E00ED2FFFEE9B
:102176003CFE1247AE78C6E2FB08E2FA08E2240209
:10218600F9E43AFA78CBE27C0029F9EC3AFAEF1254
:102196000CA4E204F280BC78CAE22416FF18E234EA
:1021A60000FE1247AE78C6E2FB08E2FA08E2F990B2
:1021B6000016EF120CB678CAE22417124C0378C642
:1021C600E2FB08E2FA08E2F9900017EE8FF0120D32
:1021D600C178CAE22419124C0378C6E2FB08E2FA77
:1021E60008E2F9900019EE8FF0120DC178CAE224C8
:1021F6001B124C0378C6E2FB08E2FA08E2F99000EB
:102206001BEE8FF0120DC190001D120F4100000051
:0D22160000900021120F41000000007F0128
:012223002298
:0727A900E2FE08E2FF7BFEE7
:0A27B00078BFEBF208EAF208E9F244
:1027BA007C007D25120CD8E42FFFEE3401FE78C28E
:1027CA00F208EFF2120D3FFDACF0124ACAE478C4E7
:1027DA00F278C4E2FFC3941474809480503B18E2E8
:1027EA002402FD18E23400FCEFF5827583002DFF08
:1027FA00E5833CFE78BFE2FB08E2FA08E22402F92C
:10280A00E43AFAE92582F9E5833AFA120C5EFD12F6
:10281A00493678C4E204F280B878C3E22416FF1875
:10282A00E23400FE78BFE2FB08E2FA08E2F990001F
:10283A0016120C77FD12493678C3E22417FF18E204
:10284A003400FE78BFE2FB08E2FA08E2F9900017CA
:10285A00124AC478C3E22419FF18E23400FE78BF92
:10286A00E2FB08E2FA08E2F9900019124AC478C3B6
:10287A00E2241BFF18E23400FE78BFE2FB08E2FA0A
:0F288A0008E2F990001B120D6AFDACF0024ACA79
:104600007C007D25120CD8E42FFFEE3401FE786883
:10461000F208EFF274FFFDFC124ACAE4786AF278FD
:104620006AE2FFC3941474809480501E18E224023E
:10463000FD18E23400FC7E00ED2FFFEE3CFEE4FDB1
:10464000124936786AE204F280D57869E22416FFCE
:0A46500018E23400FEE4FD024936D2
:10497D00E47867F208F27867E2FE08E2FFC3EE948E
:10498D0001502C7C007D25120CD8E42FFFEE340154
:10499D00FE124C09BEFF0BBFFF087867E2FE08E26E
:1049AD00FF227868E22401F218E23400F280C77E1B
:0349BD00FF7FFF7A
:0149C00022D4
:10465A00E47869F208F27867F208F27867E2FE080D
:08466A00E2FFC3EE940150339E
:104672007BFE7A01796B1220F8EF601A7869E2FE0C
:1046820008E2FF08E2FC08E2FDD39FEC9E400778B7
:0646920069ECF208EDF2F4
:104698007868E22401F218E23400F280C0786AE215
:0846A8002401FF18E23400FEBA
:0146B00022E7
:1044EB0078BFEEF208EFF208EBF208EAF208E9F215
:1044FB00E408F208F278C4E2FE08E2FFC3EE94018E
:10450B00503678C11220F0EF602178C1E2FB08E24F
:10451B00FA08E2F9120D3FFF78C0E2B5070D18E279
:10452B00B5F00878C4E2FE08E2FF2278C5E2240168
:0C453B00F218E23400F280BD7EFF7FFF2A
:014547002251
:0A38E30078BCEBF208EAF208E9F203
:1038ED00E478C2F208F278C2E2FE08E2FFC3EE9479
:1038FD0001507378BF1220F0EF605DE4FFEFC394C9
:10390D001474809480503578BCE2FB08E2FA08E22A
:10391D00F98F82758300120C77FE602078BFE2FB71
:10392D0008E2FA08E22402F9E43AFAEF7C0029F9F8
:10393D00EC3AFA120C5EB506030F80C178BCE2FBBF
:10394D0008E2FA08E2F98F82758300120C7770088D
:10395D0078C2E2FE08E2FF2278C3E22401F218E207
:0A396D003400F20238F37EFF7FFF02
:01397700222D
:104FAC0078BF74FEF2087401F2087467F21238E3E9
:0D4FBC00EFF47002EEF460037F01227F002D
:014FC90022C5
:0A3A0C007867EBF208EAF208E9F22D
:103A1600E4786DF2786DE2FFC3941474809480505C
:103A2600227867E2FB08E2FA08E22402F9E43AFAAD
:103A36007E00E92FF9EE3AFAE4120CA4786DE2045E
:103A4600F280D1786A08E2FA08E24A604BE408F2AA
:103A5600786DE2FFC3941474809480503B786AE2D8
:103A6600FB08E2FA08E2F98F82758300120C77FFF1
:103A76006026786DE2FE7867E2FB08E2FA08E22447
:103A860002F9E43AFAEE7C0029F9EC3AFAEF120C64
:083A9600A4786DE204F280B88F
:013A9E002205
:0A46B1007887EBF208EAF208E9F25C
:1046BB00E4FFEFC394147480948050307887E2FB4E
:1046CB0008E2FA08E22402F9E43AFAEF7C0029F94D
:1046DB00EC3AFA120C5EFE08E2FB08E2FA08E2F989
:1046EB008F82758300EE120CB60F80C6788AE2FBC0
:0D46FB0008E2FA08E2F9900014E4020CB69F
:08506300EBF208EAF208E9F2A1
:0F506B007C007D0D120CD8E42FFFEE3410FE22D6
:07289900E2FE08E2FF7BFEF6
:0228A00078DBE3
:1028A20012506378DEEEF208EFF2124C0978DBE2A6
:1028B200FB08E2FA08E2F9EE8FF0120DA278DFE2ED
:1028C2002402124C0378DBE2FB08E2FA08E2F990F8
:1028D2000002EE8FF0120DC178DF124C0078DBE2BD
:1028E200FB08E2FA08E2F9900004EE8FF0120DC143
:1028F20078DFE22406FF18E23400FE1247AE78DBEE
:10290200E2FB08E2FA08E2F9900006EF120CB67850
:10291200DFE22407124C0378DBE2FB08E2FA08E26A
:10292200F9900007EE8FF0120DC178DFE224091250
:102932004C0378DBE2FB08E2FA08E2F9900009EEC8
:102942008FF0120DC178DFE2240BFF18E23400FE93
:102952001247AE78DBE2FB08E2FA08E2F990000BDC
:10296200EF120CB678DFE2240CFF18E23400FE12FC
:1029720047AE78DBE2FB08E2FA08E2F990000CEFDE
:03298200020CB68E
:072EC400E2FE08E2FF7BFEC5
:022ECB0078DBB2
:102ECD0012506378DEEEF208EFF278DBE2FB08E2F7
:102EDD00FA08E2F9120D3FFDACF0124ACA78DFE2B2
:102EED002402900002124AB478DFE2240490000418
:102EFD00124AB478DFE22406FF18E23400FE78DBD4
:102F0D00E2FB08E2FA08E2F9900006120C77FD12D6
:102F1D00493678DFE22407FF18E23400FE78DBE261
:102F2D00FB08E2FA08E2F9900007124AC478DFE2E2
:102F3D002409FF18E23400FE78DBE2FB08E2FA0810
:102F4D00E2F9900009124AC478DFE2240BFF18E27F
:102F5D003400FE78DBE2FB08E2FA08E2F990000BA0
:102F6D00120C77FD12493678DFE2240CFF18E2349B
:102F7D0000FE78DBE2FB08E2FA08E2F990000C12A1
:062F8D000C77FD0249363D
:092A7100FFE2FB08E2FA08E2F9B9
:102A7A0078BFEEF208EFF208EBF208EAF208E9F2A0
:102A8A001250BA78C4EEF208EFF2E408F208F278CB
:0F2A9A00C6E2FE08E2FFC3EE94014003022B5395
:102AA9007BFE7A0179C81228A078BFE2FE08E2FF0E
:102AB90078C9E26F700318E26E6003022B4578D47F
:102AC900E230E17878C4E2FE08E2FF78CBE26F7089
:102AD9000318E26E706678D5F208F278C4E2FE084F
:102AE900E2FF78D5E2FC08E2FDC39FEC9E50337803
:102AF900CDE22DFF18E23CFE1247AE78C1E2FB0899
:102B0900E2FA08E2F978D5E2FC08E2F5828C831250
:102B19000C77B5070D78D6E22401F218E23400F2F9
:102B290080B978C4E2FE08E2FF78D6E2B5070D184D
:0C2B3900E2B5060878C6E2FE08E2FF22C2
:102B450078C7E22401F218E23400F2022A997EFFE6
:022B55007FFF00
:012B5700225B
:104A4300E478BFF208F278BFE2FE08E2FFC3EE9417
:104A530001502112506B124C09BEFF0BBFFF0878A7
:104A6300BFE2FE08E2FF2278C0E22401F218E2343A
:084A730000F280D27EFF7FFFFC
:014A7B002218
:07370D0078BFEEF208EFF2B5
:1037140078C3741DF208E4F278C1F208F278C1E2C9
:0A372400FE08E2FFC3EE94015040DE
:10372E007BFE7A0179C51228A078C6E2F4700318E0
:10373E00E2F4601F78C7E2FE08E2FF78CAE22FFFCC
:10374E0018E23EFEC378C4E29F18E29E5005EEF2E8
:03375E0008EFF27F
:1037610078C2E22401F218E23400F280B378C3E2B5
:10377100FE08E2FFE4FCFDC004A905AA06AB077838
:10378100BFE2FE08E2FFD000EB2FFFEA3EFEED397B
:10379100FDEC38FCE4FB7A1CF9F8C3120F0B500561
:0C37A1007EFF7FFF2278C3E2FE08E2FFFB
:0137AD0022F9
:0D513D00EF2DFFEE3CCF2430CF3400FE22DA
:08122800E2FB08E2FA08E2F91A
:1012300078DBEEF208EFF208EBF208EAF208E9F2E6
:101240001250BA78E7EEF208EFF278E3E2FC08E237
:10125000FD12513D78E9EEF208EFF27F5D7E00125B
:101260004C0978EBEEF208EFF27F537E00124C0946
:1012700078EDEEF208EFF2C39410EE940050028085
:101280004F78EBE2FC08E2FDC39410EC94005002AE
:10129000803EAF05AE04E4FCFDC004A905AA06AB80
:1012A0000778E9E2FE08E2FFD000EB2FFFEA3EFEFE
:1012B000ED39FDEC38FCC006C00778EDE2FE08E22F
:1012C000FBAA06E4F9F8D007D006C3120F0B5005AD
:1012D0007EFF7FFF227F517E0012519B78EBE2FE62
:1012E00008E2FF7DA512493678ECE22401FF18E2FE
:1012F0003400FE7D0112493678ECE22402FF18E248
:101300003400FE78DBE2FC08E2FD124ACA78ECE227
:101310002404FF18E23400FE78E7E2FC08E2FD1244
:101320004ACA78ECE22406FF18E23400FE78E3E2D1
:10133000FC08E2FD124ACA78ECE22408FF18E23405
:1013400000FE78E5E2FD12493678ECE22409FF1848
:10135000E23400FE78E6E2FD12493678ECE2240A37
:10136000FF18E23400FEE4FD124936E478EFF2089B
:10137000F278EFE2FE08E2FFC39410EE94005022F0
:1013800078ECE2240BFD18E23400CD2FFFED3EFE99
:10139000E4FD12493678F0E22401F218E23400F25A
:1013A00080CF78ECE2241BFF18E23400FEE4FD124B
:1013B0004936E478EFF208F278EFE2FE08E2FFC384
:1013C0009410EE9400502278ECE2241CFD18E234D4
:1013D00000CD2FFFED3EFEE4FD12493678F0E22409
:1013E00001F218E23400F280CFE478EFF208F278EC
:1013F000E7E2FE08E2FF78EFE2FC08E2FDC39FECC3
:101400009E503178ECE2242CFF18E23400CF2DCF2F
:101410003CFE78DDE2FB08E2FA08E2F98D828C837B
:10142000120C77FD12493678F0E22401F218E2340A
:1014300000F280BBE478EFF208F278E3E2FE08E223
:10144000FFC378F0E29F18E29E504278ECE2242C31
:10145000FF18E23400FE78E8E22FFF18E23EFE7843
:10146000EFE2FC08E2FD2FFFEC3EFE78E0E2FB0835
:10147000E2FA08E2F98D828C83120C77FD1249366C
:0D14800078F0E22401F218E23400F280ADB1
:10148D0078ECE2242CFF18E23400FE78E8E22FFF1E
:10149D0018E23EFE78E4E22F79F2F318E23E19F3FA
:1014AD00E478F3F208F278EFF208F278E3E2FE085E
:1014BD00E2FF78EFE2FC08E2FDC39FEC9E50387826
:1014CD00E0E2FB08E2FA08E2F98D828C83120C77D8
:1014DD00FD7C0078F0E22401FF18E23400FE120CCE
:1014ED00D878F4E22FF218E23EF278F0E22401F21D
:1014FD0018E23400F280B478F1E2FE08E2FF08E26F
:10150D00FC08E2FD124ACA78F2E22402FF18E23426
:10151D0000FE7D0112493678F2E22403FF18E23411
:07152D0000FE7D03124936A8
:1015340078E9E2FE08E2FF78ECE22FF218E23EF2EC
:0C154400E2FC08E2FD7F5D7E00124ACA56
:101550007F577E00124C0978F1EEF208EFF27F5BC4
:101560007E00124C0978F3EEF208EFF278E9E2FC23
:1015700008E2FD78F2E22DF218E23CF278EBE2FCB0
:1015800008E2FDD39FEC9E400778F3ECF208EDF201
:1015900078F1E2FC08E2FD7F577E00124ACA78F338
:1015A000E2FC08E2FD7F5B7E00124ACA78EDE2FEB3
:1015B00008E2FFD39400EE9400404278F1E2FC0888
:1015C000E2FDEF9DFDEE9CFC7F597E00124ACA7839
:1015D000F1E2FE08E2FF7C007D64120FCFC006C07E
:1015E0000778EDE2FE08E2FBAA06E4F9F8D007D09E
:0D15F00006120E79AD077F5F7E00124936AE
:1015FD0078E9E2FE08E2FFC378ECE29FFF18E29E75
:01160D00FEDE
:01160E0022B9
:10344B00785FEBF208EAF208E9F2785DEEF208EF4A
:01345B00F27E
:10345C00C39410EE94005002803D7F517E001251B7
:10346C009B785DE2FE08E2FF1247AEEF64A56002B6
:10347C008025785E124C007864EEF208EFF2785EEC
:10348C00E22406124C037866EEF208EFF2C378637E
:10349C00E29F18E29E50057EFF7FFF22E47868F2DF
:1034AC0008F27866E2FE08E2FF08E2FC08E2FDC3DF
:1034BC009FEC9E5040785EE2242CFF18E23400FE14
:1034CC007865E22FFF18E23ECF2DCF3CFE1247AEBF
:1034DC00785FE2FB08E2FA08E2F97868E2FC08E2BD
:1034EC00F5828C83EF120CB67869E22401F218E2B3
:0C34FC003400F280AD7866E2FE08E2FFCA
:0135080022A0
:054DAD00E2FE08E2FF38
:104DB20078DBEEF208EFF2C39410EE940040177F16
:104DC200517E0012519B78DCE22401FF18E234008C
:074DD200FEE4FD1249362248
:1037AE0078DDEBF208EAF208E9F278DBEEF208EFE8
:0137BE00F218
:1037BF00C39410EE940050037F00227F517E0012BD
:1037CF00519B78DBE2FE08E2FF1247AEEF64A56083
:1037DF00037F002278DC124C0078E2EEF208EFF261
:1037EF00E408F208F278E0E2FE08E2FFC378E5E2CF
:1037FF009F18E29E504278DCE2242CFF18E234003E
:10380F00FE78E3E22FFF18E23EFE78E4E2FC08E2E6
:10381F00FD2FFFEC3EFE78DDE2FB08E2FA08E2F94D
:10382F008D828C83120C77FD12493678E5E22401E4
:0A383F00F218E23400F280AD7F01C0
:01384900225C
:08484F00E2FB08E2FA08E2F9BD
:1048570078BF74FFF2087418F208744FF212436EAF
:10486700EF4E602078B9E2F908E2FA08E278BFC9AA
:10487700F208EAF208E9F278B6E2FB08E2FA08E29F
:10488700F90238E378B6122D1B78B9E2FB08E2FA91
:0748970008E2F91244EB22D4
:102C3F0078C1EBF208EAF208E9F278BFEEF208EF9A
:012C4F00F292
:102C50007BFE7A0179CC1228A078CAE2FE08E2FF56
:102C600078D6E2B5072818E2B5062378D3E2FE0845
:102C7000E2FF78C7E2FB08E2FA08E2F908E2FD08A1
:0E2C8000E278E0CDF208EDF21237AE7F0122CD
:102C8E0078D3124DAD7F507E0012519B78C1E2FB7E
:102C9E0008E2FA08E2F9120D3FFFAEF078C7E2F94A
:102CAE0008E2FA08E278E0C9F208EAF208E9F278F6
:102CBE00CAE2FD08E278E3CDF208EDF278D7E278C9
:102CCE00E5F2087402F278C412122878D9EEF208EE
:102CDE00EFF2BEFF06BFFF037F002278D9E2FF08A6
:102CEE00E278D3CFF208EFF278CAE2FF08E278D5A5
:102CFE00CFF208EFF278D27451F27F507E0012516B
:0A2D0E009B78BF7A0179CC122EC425
:022D18007F0139
:012D1A002296
:0A338A00783DEBF208EAF208E9F2E0
:103394004A6011783DE2FB08E2FA08E2F91250BAF9
:1033A400EF4E700A7BFF7A18794B7D048032783DAA
:1033B400E2FB08E2FA08E2F9124FACEF600A7BFF85
:1033C4007A18794B7D0B801812497D7865EEF208E6
:1033D400EFF2BEFF11BFFF0E7BFF7A18794B7D0819
:1033E400124B717F002212465A7840EEF208EFF237
:1033F400783DE2F908E2FA08E2786AC9F208EAF2EA
:1034040008E9F27BFE7A017940123A0CE47856F22C
:1034140008F208F2087410F208E4F208F208F278EC
:10342400657A0179401227A97BFF7A187951124CE9
:10343400357840E2FE08E2FF12448B7BFF7A18796C
:0634440048124C357F0127
:01344A00225F
:0A1A42007867EBF208EAF208E9F217
:101A4C00786DE2FB08E2FA08E2F91250BA78ADEED2
:101A5C00F208EFF27870E2FB08E2FA08E2F91250B1
:101A6C00BA78AFEEF208EFF2786AE2F908E2FA0817
:101A7C00E278B6C9F208EAF208E9F20874FEF20854
:101A8C007401F2087473F2786712484F7898EEF28A
:101A9C0008EFF2BEFF0EBFFF0B7BFF7A18794B7D70
:101AAC0009021BB97873E2FE08E2786D122A71EF15
:101ABC00F47002EEF4600B7BFF7A18794B7D0C020C
:101ACC001BB978AEE2700218E2700B7BFF7A1879C2
:101ADC004B7D04021BB9124A43789AEEF208EFF2DE
:101AEC00BEFF0EBFFF0B7BFF7A18794B7D08021BE4
:101AFC00B97F507E0012519B78ADE2FE08E2FF12D6
:101B0C00370D789CEEF208EFF2BEFF0EBFFF0B7B99
:0A1B1C00FF7A18794B7D06021BB911
:101B2600E478B1F208F278ADE2FE08E2FF78B1E2BD
:101B3600FC08E2FDC39FEC9E5031789DE22DFF1814
:101B4600E23CFE786DE2FB08E2FA08E2F978B1E2DF
:101B5600FC08E2F5828C83120C77FD12493678B2C6
:0B1B6600E22401F218E23400F280BB20
:101B71007873E2FE08E2FF7870E2F908E2FA08E21F
:101B810078E0C9F208EAF208E9F278AFE2FD08E28A
:101B910078E3CDF208EDF2E408F2087402F2786D10
:101BA100121228789EEEF208EFF2BEFF11BFFF0E6F
:101BB1007BFF7A18794B7D06124B717F0022787377
:101BC100E2FF08E278A0CFF208EFF278ADE2FF0879
:101BD100E278A2CFF208EFF2789CE2FF08E278A463
:101BE100CFF208EFF2087451F2789EE2FF08E27832
:101BF100A7CFF208EFF278AFE2FF08E278A9CFF2BF
:101C010008EFF2E408F2087402F27F507E001251EC
:101C11009B789A7A0179A0122EC4788BE22401F282
:101C210018E23400F278987A0179731227A97F01BA
:011C31002290
:072350007878EEF208EFF2CD
:10235700E4787CF208F2787AF208F2787AE2FE08FA
:0B236700E2FFC3EE9401400302246F6C
:102372007BFE7A01797E1228A07878E2FE08E2FFDD
:10238200787FE26F700318E26E6003022461788A3C
:10239200E220E103022461D3787DE2940018E29402
:1023A2000040097BFF7A187957124C35E4788BF29A
:1023B20008F27880E2FE08E2FF788BE2FC08E2FD98
:1023C200C39FEC9E501C7883E22DFF18E23CFE1264
:1023D20047AE1251A4788CE22401F218E23400F2E2
:1023E20080D07BFF7A187959124C357884E2FF7ECF
:1023F2000012519B7886E22406124C03788DEEF28D
:0324020008EFF2EE
:102405007886124C00788FEEF208EFF2E4788BF2C2
:1024150008F2788DE2FE08E2FF788BE2FC08E2FD27
:10242500C39FEC9E502B7886E2242CFF18E23400E3
:10243500FE7890E22FFF18E23ECF2DCF3CFE1247EB
:10244500AE1251A4788CE22401F218E23400F28035
:01245500C1C5
:0B245600787DE22401F218E23400F26D
:0E246100787BE22401F218E23400F2022362DA
:01246F00224A
:0A41A7007860EBF208EAF208E9F292
:1041B100788A74FEF2087401F2087463F21246B14F
:1041C1007BFF7A18795B124C357BFE7A0179631299
:1041D1004C357BFF7A18795D124C357860E2FB082B
:1041E100E2FA08E2F9120D3FFFAEF012448B7BFFB9
:1041F1007A18795F124C357860E2FB08E2FA08E23E
:10420100F9120D3FFFAEF01223507BFF7A1879624D
:03421100024C3527
:074426007868EEF208EFF2E6
:10442D00E408F208F2786AE2FE08E2FFC3EE9401B6
:02443D00504BE2
:10443F007BFE7A01796C1228A07868E2FE08E2FF11
:10444F00786DE26F700318E26E70237878E230E1D6
:10445F00057873124DAD7F507E0012519B786AE242
:0E446F00FE08E2FF12506B74FFFDFC124ACAF9
:0D447D00786BE22401F218E23400F280A80E
:01448A00220F
:10421400E4785EF208F27BFF7A187951124C35E4A7
:10422400785CF208F2785CE2FE08E2FFC3EE9401E7
:1042340050427BFE7A0179371220F8EF6029D37857
:104244005FE2940018E2940040097BFF7A187964D5
:10425400124C357BFE7A0179371241A7785FE2244C
:1042640001F218E23400F2785DE22401F218E2343B
:0D42740000F280B17BFF7A187948024C35CA
:0A3F7100783AEBF208EAF208E9F2F0
:103F7B007840E2783D600E122D1B7BFE7A01794171
:103F8B001244EB8022E2F908E2FA08E278B6C9F2B1
:103F9B0008EAF208E9F20874FEF2087401F20874F8
:103FAB0041F2783A12484F7866EEF208EFF27867F2
:103FBB00E2B4FF0E18E2B4FF097BFF7A18796602B0
:103FCB004C357841E2FE08E2FF1244267F507E001A
:103FDB0012519B7866E2FE08E2FF124600124B6913
:013FEB0022B3
:0A2985007837EBF208EAF208E9F2F5
:10298F004A60117837E2FB08E2FA08E2F91250BA0E
:10299F00EF4E700B7BFF7A18794B7D04022A6D780E
:1029AF003EE2D3940574809480400B7BFF7A1879B4
:1029BF004B7D0D022A6D783EE270037402F27F5058
:1029CF007E0012519BE4FBFD7C20FFFE1249C17B70
:1029DF00FE7A01793F12489E7837E2F908E2FA0849
:1029EF00E2786AC9F208EAF208E9F27BFE7A017925
:1029FF003F123EF6783AE2F908E2FA08E2787AC92D
:102A0F00F208EAF208E9F27BFE7A01793F1235B754
:102A1F00783DE27840F218E24401F27BFE7A0179C8
:102A2F003F122470783AE2F908E2FA08E2786AC9AC
:102A3F00F208EAF208E9F2783EE2786DF27837E2CE
:102A4F00FB08E2FA08E2F9121F94786D7401F2782C
:102A5F006BF208742CF27BFF7A18796CE4FD124B41
:012A6F0071F5
:012A70002243
:0B5156007BFF7A18796CE4FD024B71BE
:101C3200E4783AF208F208F21251217838EFF220F1
:101C4200E0157BFF7A187973124C357BFF7A18798D
:101C52007B124C35021DE8E47837F27837E2FF7EDA
:101C620000C39412748094805019EF243CFFEE3329
:101C7200FE1247AE7837E2243DF8EFF27837E204FD
:071C8200F280D8E4784FF274
:101C89007875F208F27875E2FE08E2FFC3EE940176
:101C9900506A7BFE7A0179501220F8EF6051783A48
:101CA900E204F2E47877F208F27877E2FE08E2FFDC
:061CB900C3EE9401503956
:101CBF007BFE7A0179791228A07850E2FE08E2FFC4
:101CCF00787AE2B5071618E2B506117885E230E1A9
:0C1CDF000B783CE22401F218E23400F221
:101CEB007878E22401F218E23400F280BA7876E2D6
:0A1CFB002401F218E23400F280899F
:101D05007F4E7E001247AE7839EFF27BFF7A187965
:101D150082124C357BFE7A01793D124C357BFF7A78
:101D2500187946124C357BFF7A18797B124C357B36
:101D3500FF7A187946124C357838E27BFF30E30696
:101D45007A18798880047A187990124C357BFF7A55
:101D5500187946124C3512512F12448B7BFF7A1895
:101D65007946124C35783AE2FF7E0012448B7BFFB0
:101D75007A187946124C35783BE2FE08E2FF1244A8
:101D85008B7BFF7A187946124C357839E224FE6050
:101D95000D14601214601714601C240470207BFF5E
:101DA5007A187999801E7BFF7A18799D80167BFFBA
:101DB5007A1879A1800E7BFF7A1879A780067BFFB8
:101DC5007A1879AB124C357BFF7A187946124C3567
:101DD5007F507E001247AEEF7F0033333354F8FE59
:0C1DE50012448B7BFF7A187948124C35B1
:011DF10022CF
:105002007BFF7A1879AF124C35786AE2FF7E001284
:0B501200448B7BFF7A187948024C3574
:103E79007BFF7A1879B7124C357F537E00124C09B3
:103E890012448B7BFF7A187946124C357F577E0096
:103E9900124C0912448B7BFF7A187946124C357FF4
:103EA900597E00124C0912448B7BFF7A187946120D
:103EB9004C357F5B7E00124C0912448B7BFF7A18CC
:103EC9007946124C357F5D7E00124C0912448B7B7A
:103ED900FF7A187946124C357F5F7E001247AE7E15
:0D3EE9000012448B7BFF7A187948024C359B
:102DF4007F4E7E001247AE7837EFF27BFF7A187968
:102E0400BE124C357837E224FE601514601A146043
:102E14001F146024240470287BFF7A1879C7802645
:102E24007BFF7A1879D8801E7BFF7A1879E88016A0
:102E34007BFF7A1879F3800E7BFF7A19790180067B
:102E44007BFF7A19790C124C357BFF7A187946127C
:102E54004C357837E264017BFF70067A1979188063
:102E6400047A19791B124C357BFF7A187946124C77
:102E7400357837E2FF7E00640270087BFF7A1979A7
:102E84001D8012EF64014E7BFF70067A1979188059
:102E9400047A18794F124C357BFF7A187946124C14
:102EA400357837E264027BFF70067A19791880045A
:102EB4007A18794F124C357BFF7A187948024C35D1
:104A04007BFF7A197920124C357BFF7A18797B1257
:104A14004C357BFF7A187946124C357BFF7A19792D
:104A240029124C357BFF7A187946124C357BFF7A74
:0F4A340019792E124C357BFF7A187948024C35D0
:0A475B007837EBF208EAF208E9F201
:104765007BFE7A01793A12258D7837E2F908E2FA6B
:1047750008E2787AC9F208EAF208E9F27BFE7A01E2
:10478500793A1235B7783AE24409F27BFE7A017933
:104795003A122470786D7401F2786BF208742CF279
:0947A5007BFF7A197933024C35CF
:0A2F93007837EBF208EAF208E9F2E1
:102F9D0078737401F208F27BFE7A01793A12258D6D
:102FAD00E47872F27872E2FFC394107480948050CA
:102FBD0014743E2FF8E26006E47874F2800778729C
:102FCD00E204F280DF7874E2600F7BFF7A19793CBE
:102FDD00124C35786D7401F2227837E2FB08E2FA73
:102FED0008E2F91250BAAD07788174FEF208740147
:102FFD00F2087462F27837E2FB08E2FA08E2F9129D
:10300D001DF2E47872F27872E2C3941074809480A9
:10301D00501CE2FF2462F8E2FE743E2FF8E26E606F
:10302D0006E47873F280077872E204F280D8787340
:10303D00E26014786D7401F2786BF208742CF27BF7
:10304D00FF7A197933800AE4786DF27BFF7A19796A
:04305D0045124C3597
:01306100224C
:104F4C007BFE7A01793712258D7837E24408F27BA3
:104F5C00FE7A0179371224707BFF7A197933024C6F
:014F6C00350F
:104E7B007BFE7A01793712258D7837E254F7F27B76
:104E8B00FE7A017937122470786D7401F27BFF7A08
:064E9B00197933024C35C9
:1050E200E4786DF2786BF208F27BFF7A1979330279
:0250F2004C353B
:0A32C1007837EBF208EAF208E9F2B0
:1032CB0078757401F208F27BFE7A01793D12258D37
:1032DB00E4FFEFC3941074809480501074412FF866
:1032EB00E26006E47876F280030F80E67876E2708F
:1032FB00597837E2FB08E2FA08E2F91250BAAD0747
:10330B00788174FEF2087401F2087465F27837E282
:10331B00FB08E2FA08E2F9121DF2E4FFEFC3941086
:10332B0074809480501774652FF8E2FE74412FF867
:10333B00E26E6006E47875F280030F80DF7875E249
:10334B0070087BFF7A1979458031783AE2F908E207
:10335B00FA08E2787AC9F208EAF208E9F27BFE7A17
:10336B0001793D1235B7783DE24408F27BFE7A01D4
:0E337B00793D1224707BFF7A197933124C359C
:013389002221
:1045480078BF74FFF2087419F208744EF212436EC1
:04455800EF4E603E84
:10455C007BFE7A01793712258D7837E254F7F2E435
:10456C00785FF2785FE2FFC3941074809480500DF2
:10457C00743B2FF8E4F2785FE204F280E67BFE7A7B
:0C458C000179371224707BFF7A19793313
:0C45980080067BFF7A197945124C352211
:104CCE00786A7402F278BF74FFF2087419F20874ED
:104CDE0057F212436EEF4E6005125090800B7BFF21
:0E4CEE007A18794B7D04124B71E4786AF22239
:10509000786A7402F212428EEF7002800412421497
:0550A000E4786AF22231
:0A2224007837EBF208EAF208E9F25D
:10222E00E47876F208F2786A7402F212428EEF7057
:10223E000302234C7837122D1B7BFE7A01793A125A
:10224E0044EBBEFF10BFFF0D7BFF7A187966124C70
:10225E0035E402234C788A74FEF2087401F2087495
:10226E005FF27BFE7A01793A1246B17BFF7A1879DA
:10227E0051124C35783AE2FE08E2FF12448B7BFF96
:10228E007A18795D124C357BFE7A01795F124C35E6
:10229E007BFF7A187964124C35E47874F208F27880
:0F22AE0074E2FE08E2FFC3EE94014003022342F4
:1022BD007BFE7A0179781228A0783AE2FE08E2FFD7
:1022CD007879E26F700318E26E705C7884E230E129
:1022DD0056D37877E2940018E2940040097BFF7A98
:1022ED00187964124C35E47885F208F2787AE2FEBA
:1022FD0008E2FF7885E2FC08E2FDC39FEC9E501CCE
:10230D00787DE22DFF18E23CFE1247AE1251A47803
:10231D0086E22401F218E23400F280D07877E224CC
:07232D0001F218E23400F296
:102334007875E22401F218E23400F20222AD7BFF48
:0B2344007A187948124C35E4786AF2F0
:01234F00226B
:0A3C52007837EBF208EAF208E9F215
:103C5C00786A7402F212428EEF7002807178BF742F
:103C6C00FEF2087401F208743AF27837E2FB08E2CB
:103C7C00FA08E2F91238E3BEFF0FBFFF0C7BFF7AA4
:103C8C00187966124C35E48045788A74FEF2087413
:103C9C0001F208745FF27BFE7A01793A1246B17B2D
:103CAC00FF7A187951124C357BFE7A01795F124CF0
:103CBC00357BFF7A19795D124C35783AE2FE08E2D1
:103CCC00FF12448B7BFF7A187948124C35E4786AE2
:013CDC00F2F5
:013CDD0022C4
:0A2B58007837EBF208EAF208E9F220
:102B6200786A7402F212428EEF7003022C3B7837BD
:102B7200122D1B7BFE7A01793D1244EBBEFF10BF82
:102B8200FF0D7BFF7A187966124C35E4022C3B78F4
:102B92003DE2FE08E2783A122A717862EEF208EF1C
:102BA200F2BEFF10BFFF0D7BFF7A187966124C351B
:102BB200E4022C3B78627A017964122899786AE2FD
:102BC200FF7E0012519B786CE22406124C0378734C
:102BD200EEF208EFF2786C124C007875EEF208EF24
:102BE200F27BFF7A187951124C35E47871F208F2CF
:102BF2007873E2FE08E2FF7871E2FC08E2FDC39F0F
:102C0200EC9E502B786CE2242CFF18E23400FE7804
:102C120076E22FFF18E23ECF2DCF3CFE1247AE12D6
:102C220051A47872E22401F218E23400F280C17BEE
:0C2C3200FF7A187948124C35E4786AF2F9
:012C3E002273
:0A26A2007837EBF208EAF208E9F2DB
:1026AC00786A7403F212428EEF70030227A5124F60
:1026BC006DEF70030227A57837122D1B7BFE7A0174
:1026CC0079401244EBBEFF10BFFF0D7BFF7A1879E7
:1026DC0066124C35E40227A5783DE2FB08E2FA08C5
:1026EC00E2F91250BA7865EEF208EFF27840E2FEA9
:1026FC0008E2FF783A122A72EFF47002EEF460509E
:10270C00783AE2F908E2FA08E278C4C9F208EAF287
:10271C0008E9F2783DE2F908E2FA08E278C7C9F272
:10272C0008EAF208E9F27865E2FD08E278CACDF22F
:10273C0008EDF27BFE7A017940122C3FEF7BFF70A3
:10274C00097A187966124C358003124B6BE4804978
:10275C007837E2F908E2FA08E2786AC9F208EAF294
:10276C0008E9F2783AE2F908E2FA08E2786DC9F27F
:10277C0008EAF208E9F2783DE2F908E2FA08E278B0
:10278C0070C9F208EAF208E9F27BFF7A19791B1298
:0C279C001A42EF6003124B69E4786AF205
:0127A800220E
:0A160F007837EBF208EAF208E9F27E
:10161900786A7403F212428EEF7003021842124F75
:101629006DEF70030218427837122D1B7BFE7A0189
:1016390079811244EB78A6EEF208EFF2BEFF10BFF3
:10164900FF0D7BFF7A187966124C35E4021842784F
:10165900C274FEF2087401F2087440F2087440F290
:10166900783DE2FB08E2FA08E2F91238507880EF97
:10167900F2783AE2FB08E2FA08E2F91250BA78B5D0
:10168900EEF208EFF27881E2FE08E2FF783A122AD8
:1016990072EFF47002EEF46048783AE2F908E2FA7F
:1016A90008E278C4C9F208EAF208E9F20874FEF21D
:1016B900087401F2087440F27880E2FD78CAE4F215
:1016C90008EDF27BFE7A017981122C3FEF7BFF70E6
:1016D900097A187966124C358003124B6BE40218AB
:0116E90042BE
:1016EA00124A4378B7EEF208EFF2BEFF10BFFF0DC1
:1016FA007BFF7A187966124C35E40218427F507ED5
:10170A000012519B78B5E2FE08E2FF12370D78B954
:10171A00EEF208EFF2BEFF10BFFF0D7BFF7A1879D9
:08172A0066124C35E40218427E
:10173200E478BDF208F278B5E2FE08E2FF78BDE295
:10174200FC08E2FDC39FEC9E503178BAE22DFF18EF
:10175200E23CFE783AE2FB08E2FA08E2F978BDE2FE
:10176200FC08E2F5828C83120C77FD12493678BEB2
:0B177200E22401F218E23400F280BB18
:10177D007881E2FE08E2FF78E074FEF2087401F26F
:10178D00087440F27880E2FD78E3E4F208EDF2E4CB
:10179D0008F2087402F2783A12122878BBEEF208B9
:1017AD00EFF2BEFF10BFFF0D7BFF7A187966124C6A
:1017BD0035E40218427881E2FF08E278A8CFF208FA
:1017CD00EFF278B5E2FF08E278AACFF208EFF278EF
:1017DD00B9E2FF08E278ACCFF208EFF2087451F2EB
:1017ED0078BBE2FF08E278AFCFF208EFF27880E243
:1017FD00FF78B1E4F208EFF2E408F2087402F27F28
:10180D00507E0012519B78B7E2FE08E2FF7BFE7A14
:10181D000179A8122ECB7899E22401F218E2340056
:10182D00F278A6E2FE08E2FF7BFE7A0179811227AB
:04183D00B0124B6931
:04184100E4786AF2EB
:011845002280
:104C9D007837EBF208EAF208E9F2786A7404F21256
:104CAD00428EEF70028016124F6DEF7002800E78FB
:104CBD0037E2FB08E2FA08E2F912338AE4786AF285
:014CCD0022C4
:103FEC007837EBF208EAF208E9F2786A7404F21214
:103FFC00428EEF70028055124F6DEF7002804D783B
:10400C003AE2F908E2FA08E2786AC9F208EAF20838
:10401C00E9F2783DE2F908E2FA08E2786DC9F208B3
:10402C00EAF208E9F27840E2F908E2FA08E278707C
:10403C00C9F208EAF208E9F27837E2FB08E2FA087A
:10404C00E2F9121A42EF6003124B69E4786AF22229
:104B93007837124281EF70028029124F6DEF700255
:104BA30080217837E2F908E2FA08E2783DC9F20891
:104BB300EAF208E9F2087401F27B007A0079001244
:074BC3003F71E4786AF22261
:104BCA007837124281EF70028028124F6DEF70021F
:104BDA0080207837E2F908E2FA08E2783DC9F2085B
:104BEA00EAF208E9F2E408F27BFF7A18794F123FF9
:064BFA0071E4786AF2226A
:023062007837BD
:10306400124281EF7003023129124F6DEF70030297
:103074003129783AE2F908E2FA08E278B6C9F208A6
:10308400EAF208E9F20874FEF2087401F2087440E6
:10309400F2783712484F7865EEF208EFF2BEFF106F
:1030A400BFFF0D7BFF7A187966124C35E402312993
:1030B4007840E2FE08E2FF783D122A727867EEF269
:1030C40008EFF2BEFF0FBFFF0C7BFF7A1879661280
:1030D4004C35E4805078677A0179691228997870C0
:1030E400124DAD7F507E0012519B7867E2FE08E2DC
:1030F400FF12506B74FFFDFC124ACAD37858E29455
:103104000018E29400400A08E224FFF218E234FFB7
:10311400F27865E2FE08E2FF7BFE7A01794012272D
:08312400B0124B69E4786AF275
:01312C002280
:0A3665007837EBF208EAF208E9F208
:10366F00786A7406F212428EEF7003023709124F16
:10367F006DEF70030237097837122D1B7BFE7A012D
:10368F00793D1244EB7862EEF208EFF2BEFF0FBF06
:10369F00FF0C7BFF7A187966124C35E4805C783A20
:1036AF00E2FB08E2FA08E2F9EA494B6049783AE2AC
:1036BF00FB08E2FA08E2F91250BAD3EF9400EE9445
:1036CF00004033783AE2F908E2FA08E2786AC9F280
:1036DF0008EAF208E9F27BFE7A01793D123A0C7F93
:1036EF00507E0012519B7862E2FE08E2FF7BFE7A69
:0D36FF0001793D1227B0124B69E4786AF2A0
:01370C00229A
:0A31F7007837EBF208EAF208E9F27B
:10320100786A7406F212428EEF70030232BD124FD9
:103211006DEF70030232BD7837122D1B7BFE7A01F0
:1032210079401244EBBEFF10BFFF0D7BFF7A187986
:1032310066124C35E40232BD7840E2FE08E2FF78C6
:103241003A122A727865EEF208EFF2BEFF0FBFFF65
:103251000C7BFF7A187966124C35E4805F783DE289
:10326100FB08E2FA08E2F91250BAAD07AC0678653C
:10327100E2FE08E2FF783AE2F908E2FA08E278C4ED
:10328100C9F208EAF208E9F2783DE2F908E2FA083F
:10329100E278C7C9F208EAF208E9F208ECF208EDAF
:1032A100F27BFE7A017940122C3FEF7BFF70097AA5
:0F32B100187966124C358003124B6BE4786AF281
:0132C00022EB
:1050A500786A7407F212428EEF700280041242147D
:0550B500E4786AF2221C
:0A3978007837EBF208EAF208E9F2F2
:10398200786A7407F212428EEF7003023A087837AF
:10399200122D1B7BFE7A01793A1244EBBEFF0FBF58
:1039A200FF0C7BFF7A187966124C35E48058788ACE
:1039B20074FEF2087401F208745FF27BFE7A0179F8
:1039C2003A1246B17BFF7A197962124C357BFE7A44
:1039D20001795F124C357BFF7A18795D124C35788C
:1039E2003AE2FE08E2FF12448B7BFF7A18795F12FB
:1039F2004C35783AE2FE08E2FF1223507BFF7A1937
:093A02007969124C35E4786AF28E
:013A0B002298
:1045A400786A7407F27BFF7A187951124C357F00D0
:1045B4007E2012448B7BFF7A187946124C357F5348
:1045C4007E00124C0912448B7BFF7A187946124CF8
:1045D400357F577E00124C0912448B7BFF7A187981
:1045E40046124C357F597E00124C0912448B7BFFD6
:0C45F4007A187948124C35E4786AF222FB
:104EC400786A7401F212428EEF70028012124F6DF2
:104ED400EF7002800A1250CF125161124B69E478CC
:034EE4006AF2224D
:0A3CDE007837EBF208EAF208E9F289
:103CE800786A7401F212428EEF7003023D66124F39
:103CF8006DEF70028068783AE2F908E2FA08E27833
:103D0800B6C9F208EAF208E9F20874FEF20874018A
:103D1800F208743DF2783712484F7862EEF208EFF5
:103D2800F2BEFF0FBFFF0C7BFF7A187966124C3585
:103D3800E4802B783DE2FE08E2FF1244267F507EA5
:103D48000012519BE47854F208F27862E2FE08E22D
:103D5800FF7BFE7A01793D1227B0124B69E4786A3D
:013D6800F268
:013D69002237
:0A516B007408124B66E4786AF22221
:053DF600786A7409F277
:103DFB007F537E00124C097837EEF208EFF27F57B3
:103E0B007E00124C097839EEF208EFF27837E2FCBB
:103E1B0008E2FDC39FEC9E404D08E2FE08E2FFED79
:103E2B009FFDEC9EFC7F597E00124ACAD37838E284
:103E3B00940018E29400402E7839E2FE08E2FF7CF1
:103E4B00007D64120FCFC006C0077837E2FE08E290
:103E5B00FBAA06E4F9F8D007D006120E79AD077F5E
:063E6B005F7E00124936E3
:083E7100124B69E4786AF222A9
:104AEC001250257837EFF2D3940574809480400AE5
:104AFC007BFF7A18794B7D04801A7F507E0012510F
:104B0C009B7837E2FD7F4E7E001249367BFF7A1888
:074B1C00796CE4FD124B71FE
:014B2300226F
:1040CB0078C274FEF2087401F2743712384A7847DA
:1040DB00EFF2700A7BFF7A18794B7D04804C7F508E
:1040EB007E0012519BE47848F27848E2FFFB7A009D
:0940FB00C39410748094805029D4
:1041040018E2FEEFC39E500908E22437F8E2FF806C
:10411400027F007849EFF2FDEB2481FFE43AFE12BE
:0241240049361A
:104126007848E204F280C77BFF7A18796CE4FD12C6
:024136004B71CB
:014138002264
:1041390078C274FEF2087401F2743712384A78476B
:10414900EFF2700A7BFF7A18794B7D04804C7F501F
:104159007E0012519BE47848F27848E2FFFB7A002E
:09416900C3941074809480502965
:1041720018E2FEEFC39E500908E22437F8E2FF80FE
:10418200027F007849EFF2FDEB2470FFE43AFE1261
:024192004936AC
:104194007848E204F280C77BFF7A18796CE4FD1258
:0241A4004B715D
:0141A60022F6
:104B24001250257837EFF2D3940374809480400AAE
:104B34007BFF7A18794B7D04801A7F507E001251D6
:104B44009B7837E2FD7F807E001249367BFF7A181E
:074B5400796CE4FD124B71C6
:014B5B002237
:0A5175007837124B5CE4786AF222EE
:0A517F007837124B5CE4786AF222E4
:10000300783B74FEF2087401F2087400F208E4F21B
:1000130008740CF27D2B123B317824EEF208EFF2D8
:10002300C39402EE648094805003020C5D78BF7425
:10003300FFF2087419F208746DF27800124366EF48
:100043004E7003020C5D7826E4F2087402F2782401
:10005300E2FE08E2FF08E2FC08E2FDC39FEE6480D3
:10006300F8EC6480985033ED75F003A42400F8E2B3
:10007300FB08E2FA08E2F9123A9F782608E275F0E3
:1000830003A42400F8EBF208EAF208E9F27827E285
:100093002401F218E23400F280B47824E2FE08E28C
:1000A300FFC39403EE64809480400C7806E2FB085F
:1000B300E2FA08E2F980067B007A0079007828EBFF
:1000C300F208EAF208E9F2C3EF9404EE6480948044
:1000D300400C7809E2FB08E2FA08E2F980067B00AB
:1000E3007A007900782BEBF208EAF208E9F2782437
:1000F300E2FE08E2FFC39405EE64809480400C782E
:100103000CE2FB08E2FA08E2F980067B007A007948
:1001130000782EEBF208EAF208E9F2C3EF9406EE58
:1001230064809480400C780FE2FB08E2FA08E2F95D
:1001330080067B007A0079007831EBF208EAF20856
:10014300E9F2C37825E2940718E264809480400CB6
:100153007812E2FB08E2FA08E2F980067B007A00F3
:1001630079007834EBF208EAF208E9F278BF74FF19
:10017300F2087419F2087470F27803124366EF4EB2
:100183006057C37825E2940518E264809480404662
:10019300782E12501DC007C37825E2940618E26436
:1001A3008094804007783112501D80027F02783E90
:1001B300EFF218D0E0F2782BE2F908E2FA08E278DD
:1001C3003AC9F208EAF208E9F27828E2FB08E2FA0F
:1001D30008E2F9022985020C5278BF74FFF2087411
:1001E30019F2087475F27803124366EF4E60030246
:1001F300515678BF74FFF2087419F208747AF278D2
:1002030003124366EF4E6003021C3278BF74FFF2A1
:10021300087419F208747FF27803124366EF4E6094
:100223000302500278BF74FFF2087419F20874864F
:10023300F27803124366EF4E6003023E7978BF748F
:10024300FFF2087419F208748CF27803124366EF14
:100253004E6003022DF478BF74FFF2087419F2089C
:100263007494F27803124366EF4E6003024A0478F3
:10027300BF74FFF2087419F208749CF278031243F6
:1002830066EF4E70030203EB7828E2FB08E2FA08FC
:10029300E2F9EA494B70030203E808E2FB08E2FAD9
:1002A30008E2F9EA494B70030203E878BF74FFF2EE
:1002B300087419F274A1124362EF4E70030203E84B
:1002C30078BF74FFF2087419F20874AAF2782B123B
:1002D3004366EF4E601C782EE2FB08E2FA08E2F96F
:1002E300EA494B600D782EE2FB08E2FA08E2F902D4
:1002F300475B78BF74FFF2087419F20874B1F2789F
:100303002B124366EF4E601C782EE2FB08E2FA08DC
:10031300E2F9EA494B600D782EE2FB08E2FA08E2C3
:10032300F9022F9378BF74FFF2087419F20874B8B6
:10033300F2782B124366EF4E6003024F4C78BF7482
:10034300FFF2087419F20874BFF2782B124366EFB8
:100353004E6003024E7B78BF74FFF2087419F208F3
:1003630074C7F2782B124366EF4E60030250E278B3
:10037300BF74FFF2087419F20874D1F2782B124398
:1003830066EF4E602E782EE2FB08E2FA08E2F9EA05
:10039300494B601F08E2F908E2FA08E2783AC9F229
:1003A30008EAF208E9F2782EE2FB08E2FA08E2F939
:1003B3000232C178BF74FFF2087419F20874D8F2DC
:1003C300782B124366EF4E601C782EE2FB08E2FAAC
:1003D30008E2F9EA494B600D782EE2FB08E2FA08DD
:1003E300E2F9024548020C5278BF74FFF20874190F
:1003F300F20874DEF27803124366EF4E70030204D0
:10040300E67828E2FB08E2FA08E2F9EA494B60677A
:10041300124357EF4E6060782BE2FB08E2FA08E2E2
:10042300F9EA494B603278BF74FFF2087419F20895
:1004330074E3F2782B124366EF4E601C782EE2FBD6
:1004430008E2FA08E2F9EA494B600D782EE2FB086C
:10045300E2FA08E2F9023C52782BE2FB08E2FA08DE
:10046300E2F9EA494B600D782BE2FB08E2FA08E275
:10047300F90222240250907828E2FB08E2FA08E20B
:10048300F9EA494B605078BF74FFF2087419F20817
:1004930074E8124363EF4E603D782BE2FB08E2FA07
:1004A30008E2F9EA494B602E08E2FB08E2FA08E2A7
:1004B300F9EA494B6020782EE2F908E2FA08E2787B
:1004C3003AC9F208EAF208E9F2782BE2FB08E2FA09
:1004D30008E2F9022B587828E2FB08E2FA08E2F96D
:1004E300024CCE78BF74FFF2087419F20874ECF270
:1004F3007803124366EF4E70030205E07828E2FBAF
:1005030008E2FA08E2F9EA494B607178BF74FFF236
:10051300087419F20874F2124363EF4E605E782B8D
:10052300E2FB08E2FA08E2F9EA494B604F08E2FB12
:1005330008E2FA08E2F9EA494B604108E2FB08E203
:10054300FA08E2F9EA494B6033782EE2F908E2FA55
:1005530008E2783AC9F208EAF208E9F27831E2F9F6
:1005630008E2FA08E2783DC9F208EAF208E9F2780B
:100573002BE2FB08E2FA08E2F902160F7828E2FB05
:1005830008E2FA08E2F9EA494B604F08E2FB08E2A5
:10059300FA08E2F9EA494B604108E2FB08E2FA088B
:1005A300E2F9EA494B6033782BE2F908E2FA08E210
:1005B300783AC9F208EAF208E9F2782EE2F908E299
:1005C300FA08E2783DC9F208EAF208E9F27828E28B
:1005D300FB08E2FA08E2F90226A2020C5278BF7481
:1005E300FFF2087419F20874AAF27803124366EF53
:1005F3004E70030206F67828E2FB08E2FA08E2F9F5
:10060300EA494B6044124357EF4E603D782BE2FBBF
:1006130008E2FA08E2F9EA494B602E08E2FB08E235
:10062300FA08E2F9EA494B6020782EE2F908E2FA87
:1006330008E2783AC9F208EAF208E9F2782BE2FB19
:1006430008E2FA08E2F9024C9D7828E2FB08E2FA94
:1006530008E2F9EA494B70030206F378BF74FFF22C
:10066300087419F20874E8124363EF4E700302062C
:10067300F3782BE2FB08E2FA08E2F9EA494B6070EF
:1006830008E2FB08E2FA08E2F9EA494B606208E291
:10069300FB08E2FA08E2F9EA494B605408E2FB0876
:1006A300E2FA08E2F9EA494B6046782EE2F908E2F9
:1006B300FA08E2783AC9F208EAF208E9F27831E294
:1006C300F908E2FA08E2783DC9F208EAF208E9F229
:1006D3007834E2F908E2FA08E27840C9F208EAF26B
:1006E30008E9F2782BE2FB08E2FA08E2F9023FECB0
:1006F300020C5278BF74FFF2087419F20874F6F210
:100703007803124366EF4E70030208057828E2FB74
:1007130008E2FA08E2F9EA494B6064124357EF4EE4
:10072300605D782BE2FB08E2FA08E2F9EA494B60E4
:100733003278BF74FFF2087419F20874E3F2782B6D
:10074300124366EF4E601C782EE2FB08E2FA08E2E1
:10075300F9EA494B600D782EE2FB08E2FA08E2F968
:10076300024BCA782BE2FB08E2FA08E2F9EA494BAA
:10077300600D782BE2FB08E2FA08E2F9024B93786A
:1007830028E2FB08E2FA08E2F9EA494B607178BF14
:1007930074FFF2087419F20874E8124363EF4E60B1
:1007A3005E782BE2FB08E2FA08E2F9EA494B604F74
:1007B30008E2FB08E2FA08E2F9EA494B604108E281
:1007C300FB08E2FA08E2F9EA494B6033782EE2F9D2
:1007D30008E2FA08E2783AC9F208EAF208E9F2789C
:1007E30031E2F908E2FA08E2783DC9F208EAF208D0
:1007F300E9F2782BE2FB08E2FA08E2F9023062023E
:100803000C5278BF74FFF2087419F20874FDF27881
:1008130003124366EF4E70030208E57828E2FB08F3
:10082300E2FA08E2F9EA494B6035124357EF4E60AA
:100833002E782BE2FB08E2FA08E2F9EA494B601F43
:1008430008E2F908E2FA08E2783AC9F208EAF2089B
:10085300E9F2782BE2FB08E2FA08E2F9023665785E
:1008630028E2FB08E2FA08E2F9EA494B607178BF33
:1008730074FFF2087419F20874E8124363EF4E60D0
:100883005E782BE2FB08E2FA08E2F9EA494B604F93
:1008930008E2FB08E2FA08E2F9EA494B604108E2A0
:1008A300FB08E2FA08E2F9EA494B6033782EE2F9F1
:1008B30008E2FA08E2783AC9F208EAF208E9F278BB
:1008C30031E2F908E2FA08E2783DC9F208EAF208EF
:1008D300E9F2782BE2FB08E2FA08E2F90231F702C7
:1008E3000C5278BF74FFF208741AF2087404F27899
:1008F30003124366EF4E70030209A27828E2FB0855
:10090300E2FA08E2F9EA494B606D78BF74FFF20836
:10091300741AF2087408124363EF4E605A782BE29C
:10092300FB08E2FA08E2F9EA494B604B78BF74FF2F
:10093300F2087419F2087457F2782B124366EF4EDB
:1009430060030250A578BF74FFF2087419F20874AB
:10095300E8F2782B124366EF4E601C782EE2FB0818
:10096300E2FA08E2F9EA494B600D782EE2FB08E26D
:10097300FA08E2F90239787828E2FB08E2FA08E299
:10098300F9EA494B601678BF74FFF208741AF2084B
:10099300740C124363EF4E60030245A4020C5278B9
:1009A300BF74FFF208741AF2087411F27803124349
:1009B30066EF4E607B7828E2FB08E2FA08E2F9EA88
:1009C300494B601678BF74FFF208741AF208741862
:1009D300124363EF4E6003024EC47828E2FB08E241
:1009E300FA08E2F9EA494B6044124357EF4E603D7F
:1009F300782BE2FB08E2FA08E2F9EA494B602E0899
:100A0300E2FB08E2FA08E2F9EA494B6020782EE2B9
:100A1300F908E2FA08E2783AC9F208EAF208E9F2D8
:100A2300782BE2FB08E2FA08E2F9023CDE020C5200
:100A330078BF74FFF208741AF208741CF278031278
:100A43004366EF4E600302516B78BF74FFF2087484
:100A53001AF2087423F27803124366EF4E6003021E
:100A63003DF678BF74FFF208741AF208742BF2781B
:100A730003124366EF4E7003020B797828E2FB08FA
:100A8300E2FA08E2F9EA494B602F78BF74FFF208F3
:100A9300741AF208742F124363EF4E601C782BE232
:100AA300FB08E2FA08E2F9EA494B600D782BE2FB16
:100AB30008E2FA08E2F9024AEC7828E2FB08E2FAD3
:100AC30008E2F9EA494B602F78BF74FFF208741902
:100AD300F20874E8124363EF4E601C782BE2FB08C4
:100AE300E2FA08E2F9EA494B600D782BE2FB08E2EF
:100AF300FA08E2F90240CB7828E2FB08E2FA08E2BE
:100B0300F9EA494B602F78BF74FFF208741AF208B0
:100B13007433124363EF4E601C782BE2FB08E2FA56
:100B230008E2F9EA494B600D782BE2FB08E2FA0888
:100B3300E2F90241397828E2FB08E2FA08E2F9EA2D
:100B4300494B602F78BF74FFF208741AF2087438A7
:100B5300124363EF4E601C782BE2FB08E2FA08E2D3
:100B6300F9EA494B600D782BE2FB08E2FA08E2F957
:100B7300024B24020C5278BF74FFF208741AF20875
:100B8300743CF27803124366EF4E7003020C527802
:100B930028E2FB08E2FA08E2F9EA494B605078BF21
:100BA30074FFF2087419F20874EC124363EF4E6099
:100BB3003D782BE2FB08E2FA08E2F9EA494B602EA2
:100BC30008E2FB08E2FA08E2F9EA494B6020782ED2
:100BD300E2F908E2FA08E2783AC9F208EAF208E927
:100BE300F2782BE2FB08E2FA08E2F9025175782861
:100BF300E2FB08E2FA08E2F9EA494B605078BF7475
:100C0300FFF2087419F20874F6124363EF4E603D65
:100C1300782BE2FB08E2FA08E2F9EA494B602E0876
:100C2300E2FB08E2FA08E2F9EA494B6020782EE297
:100C3300F908E2FA08E2783AC9F208EAF208E9F2B6
:100C4300782BE2FB08E2FA08E2F902517F80007B8D
:0A0C5300FF7A18794B7D04124B71F3
:010C5D002274
:03000000023D6A54
:0C3D6A00787FE4F6D8FD758140023DB181
:100C5E00BB010689828A83E0225002E722BBFE0294
:090C6E00E32289828A83E49322C7
:100C7700BB010CE58229F582E5833AF583E0225032
:100C870006E92582F8E622BBFE06E92582F8E2227C
:0D0C9700E58229F582E5833AF583E4932296
:100CA400BB010689828A83F0225002F722BBFE012F
:020CB400F32229
:100CB600F8BB010DE58229F582E5833AF583E8F074
:100CC600225006E92582C8F622BBFE05E92582C820
:020CD600F22208
:100CD800EF8DF0A4A8F0CF8CF0A428CE8DF0A42E30
:020CE800FE22EA
:100CEA00BC000BBE0029EF8DF084FFADF022E4CCEE
:100CFA00F875F008EF2FFFEE33FEEC33FCEE9DECB7
:100D0A00984005FCEE9DFE0FD5F0E9E4CEFD22EDFC
:100D1A00F8F5F0EE8420D21CFEADF075F008EF2F46
:100D2A00FFED33FD4007985006D5F0F222C398FD37
:050D3A000FD5F0EA22D4
:100D3F00BB010A89828A83E0F5F0A3E0225006877F
:100D4F00F009E71922BBFE07E3F5F009E319228941
:0B0D5F00828A83E493F5F07401932274
:100D6A00BB0110E58229F582E5833AF583E0F5F0C7
:100D7A00A3E0225009E92582F886F008E622BBFEA4
:100D8A000AE92582F8E2F5F008E222E5832AF583EA
:080D9A00E993F5F0A3E99322AF
:100DA200BB010A89828A83F0E5F0A3F0225006F79C
:0F0DB20009A7F01922BBFE06F3E5F009F3192299
:100DC100F8BB0111E58229F582E5833AF583E8F064
:100DD100E5F0A3F0225009E92582C8F608A6F02221
:0D0DE100BBFE09E92582C8F2E5F008F22208
:100DEE00E88FF0A4CC8BF0A42CFCE98EF0A42CFCA4
:100DFE008AF0EDA42CFCEA8EF0A4CDA8F08BF0A422
:100E0E002DCC3825F0FDE98FF0A42CCD35F0FCEB80
:100E1E008EF0A4FEA9F0EB8FF0A4CFC5F02ECD3945
:0F0E2E00FEE43CFCEAA42DCE35F0FDE43CFC22B2
:100E3D0075F008758200EF2FFFEE33FECD33CDCC6C
:100E4D0033CCC58233C5829BED9AEC99E5829840EF
:100E5D000CF582EE9BFEED9AFDEC99FC0FD5F0D6CC
:100E6D00E4CEFBE4CDFAE4CCF9A88222B800C1B9F6
:100E7D000059BA002DEC8BF084CFCECDFCE5F0CB34
:100E8D00F97818EF2FFFEE33FEED33FDEC33FCEB6D
:100E9D0033FB10D703994004EB99FB0FD8E5E4F928
:100EAD00FA227818EF2FFFEE33FEED33FDEC33FC15
:100EBD00C933C910D7059BE99A4007EC9BFCE99A09
:100ECD00F90FD8E0E4C9FAE4CCFB2275F010EF2F4E
:100EDD00FFEE33FEED33FDCC33CCC833C810D7074E
:100EED009BEC9AE899400AED9BFDEC9AFCE899F889
:0E0EFD000FD5F0DAE4CDFBE4CCFAE4C8F9221C
:100F0B00EB9FF5F0EA9E42F0E99D42F0E89C45F03C
:010F1B0022B3
:0C0F1C00ECF208EDF208EEF208EFF22211
:100F2800D083D082E493F208740193F20874029398
:090F3800F208740393F2740473CF
:100F4100BB010DE58229F582E5833AF5830211DCC7
:100F51005007E92582F80211C3BBFE07E92582F893
:040F6100020F282231
:100F6500F5F0C582A4C582C5F0C583A42583F583A4
:010F75002259
:100F7600BB0120E58229F582E5833AF583D0F0D0DE
:100F8600E0F8D0E0F9D0E0FAD0E0FBE8C0E0C0F04D
:100F96000212165018E92582F8D083D082D0E0F9E3
:100FA600D0E0FAD0E0FBC082C08302120DBBFE186F
:100FB600E92582F8D083D082D0E0F9D0E0FAD0E0FB
:090FC600FBC082C08302121F224D
:100FCF00EC8EF0A4CCC5F0CCCDF8EFA4CEC5F02DAF
:100FDF00FDE43CFCE8A42EC8C5F03DFDE43CFCEF6D
:0D0FEF00A4FFE5F028FEE43DFDE43CFC22FB
:100FFC00E3F5F009E208B5F06D606B80F3E3F5F012
:10100C0009E608B5F060605E80F387F009E608B584
:10101C00F054605280F487F009E208B5F04860465D
:10102C0080F488828C8387F009E0A3B5F0386036B1
:10103C0080F488828C8387F009E493A3B5F0276051
:10104C002580F388828C83E3F5F009E0A3B5F016D4
:10105C00601480F388828C83E3F5F009E493A3B5E4
:10106C00F004600280F2021127808580E7808E8078
:10107C00D2803C8015806C807E809B80B5808B807C
:10108C00A1804F8070803A02113389828A83ECFAF6
:10109C00E493F5F0A3C8C582C8CCC583CCE493A374
:1010AC00C8C582C8CCC583CCB5F070606E80E189B0
:1010BC00828A83E493F5F0A3E208B5F05E605C806D
:1010CC00F289828A83E0F5F0A3E608B5F04D604B17
:1010DC0080F389828A83E0F5F0A3E208B5F03C60E6
:1010EC003A80F389828A83E493F5F0A3E608B5F09D
:1010FC002A602880F2805389828A83ECFAE493F583
:10110C00F0A3C8C582C8CCC583CCE0A3C8C582C82F
:10111C00CCC583CCB5F004600280E27FFFB5F00251
:10112C000F2240027F012289828A83ECFAE0F5F0DB
:10113C00A3C8C582C8CCC583CCE0A3C8C582C8CC23
:10114C00C583CCB5F0D560D380E389828A83ECFA71
:10115C00E0F5F0A3C8C582C8CCC583CCE493A3C882
:10116C00C582C8CCC583CCB5F0B160AF80E288F045
:10117C00ED2402B4040050A3F582EB2402B4040065
:0B118C005099232345822390107573B7
:1050BA00E4FFFE120C5E600C0FEF70010E09E9703E
:0550CA00F20A80EF2254
:10119700EF4E6012EF60010EEDBB010B89828A836F
:1011A700F0A3DFFCDEFA2289F05007F709DFFCA97C
:0C11B700F022BBFEFCF309DFFCA9F022D3
:103D7600024D29E493A3F8E493A34003F68001F2ED
:103D860008DFF48029E493A3F85407240CC8C3334E
:103D9600C4540F4420C8834004F456800146F6DF1D
:103DA600E4800B01020408102040809048EBE47E7A
:103DB600019360BCA3FF543F30E509541FFEE49312
:103DC600A360010ECF54C025E060A840B8E493A3D9
:103DD600FAE493A3F8E493A3C8C582C8CAC583CA04
:103DE600F0A3C8C582C8CAC583CADFE9DEE780BEBC
:014935000081
:1011C300D083D082E493F608740193F608740293F3
:0911D300F608740393F67404732A
:1011DC00A8828583F0D083D0821211F31211F312FE
:1011EC0011F31211F3E473E493A3C583C5F0C58323
:1011FC00C8C582C8F0A3C583C5F0C583C8C582C85D
:01120C0022BF
:09120D00EBF608EAF608E9F62206
:09121600EBF0A3EAF0A3E9F022D9
:09121F00EBF208EAF208E9F22200
:00000001FF
