:0A1E8000313233343536000D0A000C
:101C2E00121E297F007E40120000783B74FEF208DF
:101C3E007400F2087400F27BFF7A1E79807D061222
:101C4E0000037BFE7A0079007D10121B90121DEAB4
:101C5E007835EEF208EFF27BFE7A0079357D0212CE
:0D1C6E001B907BFF7A1E7987121D3780FEC8
:101E2900759850438E40538EFE53890F758BD0752C
:071E39008DFFC2ABD28E2227
:081EA5008F993099FDC29922CA
:101D37007837EBF208EAF208E9F27837E2FB08E2D3
:101D4700FA08E2F91217AA601A7837E2FB0808E2E4
:101D5700F92401F218E2FA3400F21217AAFF121E50
:041D6700A580D7225A
:101D6B00EFC4540FFEEF540FFDEEC3940A7480942E
:101D7B0080EE5004243080022437FF121EA5EDC3E1
:101D8B00940A74809480ED5004243080022437FF31
:031D9B00121EA570
:011D9E002222
:101B90007837EBF208EAF208E9F208ECF208EDF225
:101BA000E408F208F2783AE2FE08E2FF08E2FC08F4
:101BB000E2FDC39FEC9E50277837E2FB08E2FA086B
:101BC000E2F98D828C831217C3FF121D6B7F2012E6
:0F1BD0001EA5783DE22401F218E23400F280C62F
:011BDF0022E3
:041A8C00AB07AA06F4
:101A9000E47815F2EB4A70057F30021EA5D3EB9473
:101AA00000EA9400402C7C007D0AAF03AE021218BD
:101AB00024ED2430FF7815E2FE04F274102EF8EFC6
:101AC000F27C007D0AAF03AE02121824AA06AB070F
:101AD00080CB7815E2D3940074809480400DE2149A
:0B1AE000F22410F8E2FF121EA580E7C0
:011AEB0022D8
:081EAD003098FDC298AF9922A4
:0D18E8007816EBF208EAF208E9F208EDF2DA
:1018F500E4781CF27820803C7819E214FF781CE229
:10190500C39F5076309832C29808E599F2E2FF6499
:101915000A6067EF640D60627816E2FB08E2FA0878
:10192500E2F9781CE2FE04F28E82758300EF12184C
:1019350002E4781EF208F280BF781AE2FE08E2FFA0
:10194500D39400EE940040B0781FE22401F218E22F
:101955003400F2C308E29F18E29E501EE47820F29C
:1019650008F2C37821E294E818E29403508A08E269
:101975002401F218E23400F280E87816E2FB08E26E
:10198500FA08E2F9781CE2FFF582758300E4021893
:01199500024F
:061CC200812EA0812F001D
:0C1E740090FE82E030E6F9E054BFF0225E
:101E0A0053B1F353B2F353C9CF43CA30C2CCC2CD94
:0F1E1A0043BA8090FE8074F9F090FE82E4F022CB
:091E8A0090FE817401F0021E7447
:091E930090FE817406F0021E7439
:0E1E660090FE86EFF090FE817402F0021E7472
:0F1E570090FE817404F0121E7490FE87E0FF224B
:0D1DC900E4782FF2121E8A18E2FF121E6647
:101DD60090FE817403F0121E7490FE82E030E102E0
:041DE600D322C3221F
:101E40003000047F0180027F0090FE82EFF090FE60
:071E5000817405F0021E740D
:101C7B00AB07AA06121DC95005087401802AEA1287
:101C8B001DD25006782F7402801EAF03121E6612EF
:101C9B001DD65006782F7403800EAF05121E6612E8
:101CAB001DD65008782F7404F2021E93121E937FD8
:071CBB00057E00120000226B
:041B3F00AD07AC063C
:101B4300121DC95005087401802CEC121DD25006D9
:101B5300782F74028020AF05121E66121DD6500620
:101B6300782F74038010121E8A782EE24401121D0E
:101B7300D2500A087405F2121E937F0022121E57D8
:0C1B8300AE07D200121E40121E93AF06E7
:011B8F002233
:091E9C00EF25E0FF782EEFF222A1
:101AEC007822EEF208EFF208EBF208EAF208E9F2DB
:101AFC007824E2FB08E2FA08E2F91217AA602878C7
:101B0C002208E2FF2401F218E2FE3400F27824E20B
:101B1C00FB0808E2F92401F218E2FA3400F2121779
:101B2C00AAFD121C7B80C97822E2FE08E2FFE4FDCC
:031B3C00021C7B0D
:101A22007827EEF208EFF208EBF208EAF208E9F2A0
:101A3200E4782DF218E27002FF22782CE214FF08FB
:101A4200E2C39F502D782708E2FF2401F218E2FE3C
:101A52003400F2121B3F7829E2FB08E2FA08E2F9AD
:101A6200782DE2FE04F28E82758300EF121802EFE7
:101A720070C87829E2FB08E2FA08E2F9782DE2FF61
:091A8200F582758300E4121802DC
:011A8B002238
:101D9F007830EEF208EFF208EDF2783008E2FF2427
:101DAF00FFF218E2FE34FFF2EF4E600DE2FE08E2A2
:0A1DBF00FF08E2FD121C7B80E12208
:101BE0007F227E00121B3FEF7F00FEC007C0067FF2
:101BF000237E00121B3FEFFDD0E0FED0E04DFF78CA
:101C000033EEF208EFF2C394FFEE94FF5009E224A2
:101C100001F218E23400F27833E2FD7F227E0012F6
:0E1C20001C7B783308E2FD7F237E00021C7BD4
:101DEA007F227E00121B3FEF7F00FEC007C0067FE6
:101DFA00237E00121B3FEFFDD0E0FED0E04DFF2214
:031EB500021E0A00
:011EBB002204
:011EBC002203
:031EB80002000025
:101CC8005000D3417263686976756D55313233348B
:101CD80035363720202100000000000000000000F9
:101CE80000000000000000000000000000000000EC
:061CF800000000000000E6
:101CFF00783BE4F2087400F2087421F27D101200B0
:101D0F00037F0FEFC3942074809480501474212F9D
:101D1F00F974D32FF582E43400F583E047F70F8091
:071D2F00E27B007A0079213C
:011D3600228A
:1013A800E0FCA3E0FDA3E0FEA3E0FF784B1218AB3E
:0613B8007B087D04E4FF48
:0B13BE007844EDF208EBF27843EFF208
:1013C90025E025E02493F582E43400F583C083C049
:1013D90082E0F8A3E0F9A3E0FAA3E0FBC000C001B2
:1013E900C002C0037844E225E025E02493F582E4B5
:1013F9003400F583E0FCA3E0FDA3E0FEA3E0FF7861
:1014090047E2FB08E2F908E2FA08E2CBF8EF2BFF22
:10141900EE3AFEED39FDEC38FCD003D002D001D014
:1014290000EB2FFFEA3EFEE93DFDE83CFCD082D00F
:101439008312189F7843E225E025E02493F582E49E
:101449003400F583E0FCA3E0FDA3E0FEA3E0FF7810
:1014590046E225E025E02493F582E43400F583E0B3
:10146900F8A3E0F9A3E0FAA3E06FFFEA6EFEE96DE5
:10147900FDE86CFC784F1218AB784FE2FC08E2FDEE
:1014890008E2FE08E2FF781012188CC004C005C0FB
:1014990006C007784FE2FC08E2FD08E2FE08E2FF19
:1014A9007810121879D003D002D001D000EF4BFF89
:1014B900EE4AFEED49FDEC48FC7846E225E025E0E0
:1014C9002493F582E43400F58312189F7845E225C8
:1014D900E025E02493F582E43400F583C083C082DB
:1014E900E0FCA3E0FDA3E0FEA3E0FF08E225E02580
:1014F900E02493F582E43400F583E0F8A3E0F9A34E
:10150900E0FAA3E0FBEF2BFFEE3AFEED39FDEC38F4
:10151900FCD082D08312189F7845E225E025E0248B
:1015290093F582E43400F583E0FCA3E0FDA3E0FE3B
:10153900A3E0FF18E225E025E02493F582E43400D6
:10154900F583E0F8A3E0F9A3E0FAA3E06FFFEA6E00
:10155900FEE96DFDE86CFC784F1218AB784FE2FCA0
:1015690008E2FD08E2FE08E2FF781412188CC004B4
:10157900C005C006C007784FE2FC08E2FD08E2FE9C
:1015890008E2FF780C121879D003D002D001D000FC
:10159900EF4BFFEE4AFEED49FDEC48FC7844E225AD
:1015A900E025E02493F582E43400F58312189F784E
:1015B90043E225E025E02493F582E43400F583C075
:1015C90083C082E0F8A3E0F9A3E0FAA3E0FBC0003E
:1015D900C001C002C0037844E225E025E02493F568
:1015E90082E43400F583E0FCA3E0FDA3E0FEA3E080
:1015F900FF784BE2FB08E2F908E2FA08E2CBF8EFE0
:101609002BFFEE3AFEED39FDEC38FCD003D002D0C9
:1016190001D000EB2FFFEA3EFEE93DFDE83CFCD09E
:1016290082D08312189F7843E225E025E02493F5C0
:1016390082E43400F583E0FCA3E0FDA3E0FEA3E02F
:10164900FF7846E225E025E02493F582E43400F5AD
:1016590083E0F8A3E0F9A3E0FAA3E06FFFEA6EFEE6
:10166900E96DFDE86CFC784F1218AB784FE2FC0885
:10167900E2FD08E2FE08E2FF781812188CC004C0E7
:1016890005C006C007784FE2FC08E2FD08E2FE0843
:10169900E2FF7808121879D003D002D001D000EF08
:1016A9004BFFEE4AFEED49FDEC48FC7846E225E0A9
:1016B90025E02493F582E43400F58312189F7845D8
:1016C900E225E025E02493F582E43400F583C08324
:1016D900C082E0FCA3E0FDA3E0FEA3E0FF08E22551
:1016E900E025E02493F582E43400F583E0F8A3E0F3
:1016F900F9A3E0FAA3E0FBEF2BFFEE3AFEED39FD8B
:10170900EC38FCD082D08312189F7845E225E02579
:10171900E02493F582E43400F583E0FCA3E0FDA323
:10172900E0FEA3E0FF18E225E025E02493F582E43A
:101739003400F583E0F8A3E0F9A3E0FAA3E06FFF32
:10174900EA6EFEE96DFDE86CFC784F1218AB784F34
:10175900E2FC08E2FD08E2FE08E2FF781912188CA3
:10176900C004C005C006C007784FE2FC08E2FD08C6
:10177900E2FE08E2FF7807121879D003D002D001FF
:10178900D000EF4BFFEE4AFEED49FDEC48FC7844F2
:10179900E225E025E02493F582E43400F58302187C
:0117A9009FA0
:0D0003007837EBF208EAF208E9F208EDF2B6
:10001000D394107480948040037410F29000931273
:1000200018B76B08E6479000971218B7BB67AE8504
:1000300090009B1218B73C6EF37290009F1218B795
:10004000A54FF53A9000A31218B7510E527F9000B9
:10005000A71218B79B05688C9000AB1218B71F83C6
:10006000D9AB9000AF1218B75BE0CD199000B31276
:1000700018B76A09E6679000B71218B7BB67AE8574
:100080009000BB1218B73C6EF3729000BF1218B705
:10009000A54FF53A783AE2FFEF647FFF7452FE74A1
:1000A0000EFD7451FC9000C312189F9000C71218E7
:1000B000B79B05688C9000CB1218B7E07C26549053
:1000C00000CF1218B75BE0CD19E4783EF2783EE23B
:1000D000FFC3941074809480501CEF25E025E02429
:1000E00053F582E43400F5831218B700000000785D
:1000F0003EE204F280D7E4783EF2783AE2FF783EBE
:10010000E2FEC39F5076EE1313543F25E025E02412
:1001100053F582E43400F583C083C082E0F8A3E0A5
:10012000F9A3E0FAA3E0FBC000C001C002C003785D
:1001300037E2FB08E2FA08E2F9783EE2F5827583DD
:10014000001217C3FFE4FCFDFE783EE25403FB33CC
:10015000333354F8F9F812188CD003D002D001D000
:1001600000EB4FFFEA4EFEE94DFDE84CFCD082D09B
:100170008312189F783EE204F20200FA7846740C6B
:10018000F2900053E0FCA3E0FDA3E0FEA3E0FF0833
:100190001218AB9000571213A87846740DF2900015
:1001A0005BE0FCA3E0FDA3E0FEA3E0FF081218ABB8
:1001B00090005FE0FCA3E0FDA3E0FEA3E0FF784B2E
:1001C0001218AB7B097D057F011213BE7846740EB1
:1001D000F2900063E0FCA3E0FDA3E0FEA3E0FF08D3
:1001E0001218AB900067E0FCA3E0FDA3E0FEA3E0E3
:1001F000FF784B1218AB7B0A7D067F021213BE7884
:1002000046740FF290006BE0FCA3E0FDA3E0FEA3B8
:10021000E0FF081218AB90006FE0FCA3E0FDA3E044
:10022000FEA3E0FF784B1218AB7B0B7D077F031218
:1002300013BE7846740FF2900073E0FCA3E0FDA3B8
:10024000E0FEA3E0FF081218AB900077E0FCA3E00B
:10025000FDA3E0FEA3E0FF784B1218AB7B0A7D05FF
:10026000E4FF1213BE7846740CF290007BE0FCA30E
:10027000E0FDA3E0FEA3E0FF081218AB90007FE0D2
:10028000FCA3E0FDA3E0FEA3E0FF784B1218AB7BDC
:100290000B7D067F011213BE7846740DF290008329
:1002A000E0FCA3E0FDA3E0FEA3E0FF081218AB9082
:1002B0000087E0FCA3E0FDA3E0FEA3E0FF784B1283
:1002C00018AB7B087D077F021213BE7846740EF2CE
:1002D00090008BE0FCA3E0FDA3E0FEA3E0FF08128A
:1002E00018AB90008FE0FCA3E0FDA3E0FEA3E0FFCD
:1002F000784B1218AB7B097D047F031213BE78463E
:10030000740CF290008BE0FCA3E0FDA3E0FEA3E000
:10031000FF081218AB90007B1213A87846740DF2F8
:10032000900063E0FCA3E0FDA3E0FEA3E0FF081261
:1003300018AB900073E0FCA3E0FDA3E0FEA3E0FF98
:10034000784B1218AB7B097D057F011213BE7846EE
:10035000740EF2900077E0FCA3E0FDA3E0FEA3E0C2
:10036000FF081218AB90008FE0FCA3E0FDA3E0FEB5
:10037000A3E0FF784B1218AB7B0A7D067F021213B5
:10038000BE7846740FF2900087E0FCA3E0FDA3E086
:10039000FEA3E0FF081218AB90006BE0FCA3E0FDA9
:1003A000A3E0FEA3E0FF784B1218AB7B0B7D077F29
:1003B000031213BE7846740FF2900057E0FCA3E0DE
:1003C000FDA3E0FEA3E0FF081218AB900083E0FC61
:1003D000A3E0FDA3E0FEA3E0FF784B1218AB7B0A7D
:1003E0007D05E4FF1213BE7846740CF2900053E0D2
:1003F000FCA3E0FDA3E0FEA3E0FF081218AB900011
:100400005BE0FCA3E0FDA3E0FEA3E0FF784B121845
:10041000AB7B0B7D067F011213BE7846740DF29004
:10042000007FE0FCA3E0FDA3E0FEA3E0FF081218BC
:10043000AB90006FE0FCA3E0FDA3E0FEA3E0FF783B
:100440004B1218AB7B087D077F021213BE784674EF
:100450000EF2900067E0FCA3E0FDA3E0FEA3E0FF46
:10046000081218AB90005FE0FCA3E0FDA3E0FEA340
:10047000E0FF784B1218AB7B097D047F031213BE9B
:100480007846740CF290007FE0FCA3E0FDA3E0FE50
:10049000A3E0FF081218AB9000731213A8784674FB
:1004A0000DF2900083E0FCA3E0FDA3E0FEA3E0FFDB
:1004B000081218AB900053E0FCA3E0FDA3E0FEA3FC
:1004C000E0FF784B1218AB7B097D057F011213BE4C
:1004D0007846740EF2900067E0FCA3E0FDA3E0FE16
:1004E000A3E0FF081218AB90005BE0FCA3E0FDA3C3
:1004F000E0FEA3E0FF784B1218AB7B0A7D067F027B
:100500001213BE7846740FF290008FE0FCA3E0FD5A
:10051000A3E0FEA3E0FF081218AB900087E0FCA365
:10052000E0FDA3E0FEA3E0FF784B1218AB7B0B7D50
:10053000077F031213BE7846740FF290007BE0FC35
:10054000A3E0FDA3E0FEA3E0FF081218AB90008B30
:10055000E0FCA3E0FDA3E0FEA3E0FF784B1218ABA4
:100560007B0A7D05E4FF1213BE7846740CF29000FE
:100570005FE0FCA3E0FDA3E0FEA3E0FF081218ABE0
:1005800090006BE0FCA3E0FDA3E0FEA3E0FF784B4E
:100590001218AB7B0B7D067F011213BE7846740DDB
:1005A000F290006FE0FCA3E0FDA3E0FEA3E0FF08F3
:1005B0001218AB900057E0FCA3E0FDA3E0FEA3E01F
:1005C000FF784B1218AB7B087D077F021213BE78B1
:1005D00046740EF2900077E0FCA3E0FDA3E0FEA3DA
:1005E000E0FF081218AB900063E0FCA3E0FDA3E07D
:1005F000FEA3E0FF784B1218AB7B097D047F03124A
:1006000013BE7846740CF290006FE0FCA3E0FDA3EB
:10061000E0FEA3E0FF081218AB9000771213A87851
:1006200046740DF290005FE0FCA3E0FDA3E0FEA3A2
:10063000E0FF081218AB900057E0FCA3E0FDA3E038
:10064000FEA3E0FF784B1218AB7B097D057F0112FA
:1006500013BE7846740EF2900087E0FCA3E0FDA381
:10066000E0FEA3E0FF081218AB900083E0FCA3E0DB
:10067000FDA3E0FEA3E0FF784B1218AB7B0A7D06DA
:100680007F021213BE7846740FF290007FE0FCA345
:10069000E0FDA3E0FEA3E0FF081218AB90008BE0A2
:1006A000FCA3E0FDA3E0FEA3E0FF784B1218AB7BB8
:1006B0000B7D077F031213BE7846740FF290005B28
:1006C000E0FCA3E0FDA3E0FEA3E0FF081218AB905E
:1006D000006BE0FCA3E0FDA3E0FEA3E0FF784B127B
:1006E00018AB7B0A7D05E4FF1213BE7846740CF24A
:1006F000900067E0FCA3E0FDA3E0FEA3E0FF08128A
:1007000018AB90007BE0FCA3E0FDA3E0FEA3E0FFBC
:10071000784B1218AB7B0B7D067F011213BE784617
:10072000740DF2900063E0FCA3E0FDA3E0FEA3E003
:10073000FF081218AB900053E0FCA3E0FDA3E0FE1D
:10074000A3E0FF784B1218AB7B087D077F021213E2
:10075000BE7846740EF290008FE0FCA3E0FDA3E0AB
:10076000FEA3E0FF081218AB900073E0FCA3E0FDCD
:10077000A3E0FEA3E0FF784B1218AB7B097D047F5A
:10078000031213BE7846740CF2900077E0FCA3E0ED
:10079000FDA3E0FEA3E0FF081218AB900053121374
:1007A000A87846740DF2900067E0FCA3E0FDA3E09A
:1007B000FEA3E0FF081218AB90006FE0FCA3E0FD81
:1007C000A3E0FEA3E0FF784B1218AB7B097D057F09
:1007D000011213BE7846740EF290005BE0FCA3E0B9
:1007E000FDA3E0FEA3E0FF081218AB900063E0FC5D
:1007F000A3E0FDA3E0FEA3E0FF784B1218AB7B0A59
:100800007D067F021213BE7846740FF290007BE0E3
:10081000FCA3E0FDA3E0FEA3E0FF081218AB9000EC
:100820008FE0FCA3E0FDA3E0FEA3E0FF784B1218ED
:10083000AB7B0B7D077F031213BE7846740FF290DB
:10084000008BE0FCA3E0FDA3E0FEA3E0FF0812188C
:10085000AB900057E0FCA3E0FDA3E0FEA3E0FF782F
:100860004B1218AB7B0A7D05E4FF1213BE78467469
:100870000CF290007FE0FCA3E0FDA3E0FEA3E0FF0C
:10088000081218AB900083E0FCA3E0FDA3E0FEA3F8
:10089000E0FF784B1218AB7B0B7D067F011213BE75
:1008A0007846740DF290006BE0FCA3E0FDA3E0FE3F
:1008B000A3E0FF081218AB900073E0FCA3E0FDA3D7
:1008C000E0FEA3E0FF784B1218AB7B087D077F02A8
:1008D0001213BE7846740EF290005FE0FCA3E0FDB8
:1008E000A3E0FEA3E0FF081218AB900087E0FCA392
:1008F000E0FDA3E0FEA3E0FF784B1218AB7B097D7F
:10090000047F031213BE7846740CF290005BE0FC87
:10091000A3E0FDA3E0FEA3E0FF081218AB90008364
:100920001213A87846740DF290006BE0FCA3E0FD72
:10093000A3E0FEA3E0FF081218AB90007BE0FCA34D
:10094000E0FDA3E0FEA3E0FF784B1218AB7B097D2E
:10095000057F011213BE7846740EF2900053E0FC3E
:10096000A3E0FDA3E0FEA3E0FF081218AB90007F18
:10097000E0FCA3E0FDA3E0FEA3E0FF784B1218AB80
:100980007B0A7D067F021213BE7846740FF2900038
:1009900073E0FCA3E0FDA3E0FEA3E0FF081218ABA8
:1009A00090005FE0FCA3E0FDA3E0FEA3E0FF784B36
:1009B0001218AB7B0B7D077F031213BE7846740FB2
:1009C000F2900063E0FCA3E0FDA3E0FEA3E0FF08DB
:1009D0001218AB900087E0FCA3E0FDA3E0FEA3E0CB
:1009E000FF784B1218AB7B0A7D05E4FF1213BE782B
:1009F00046740CF290006FE0FCA3E0FDA3E0FEA3C0
:100A0000E0FF081218AB900067E0FCA3E0FDA3E054
:100A1000FEA3E0FF784B1218AB7B0B7D067F011223
:100A200013BE7846740DF290008FE0FCA3E0FDA3A6
:100A3000E0FEA3E0FF081218AB90008BE0FCA3E0FF
:100A4000FDA3E0FEA3E0FF784B1218AB7B087D0707
:100A50007F021213BE7846740EF2900057E0FCA39A
:100A6000E0FDA3E0FEA3E0FF081218AB900077E0E2
:100A7000FCA3E0FDA3E0FEA3E0FF784B1218AB7BE4
:100A8000097D047F031213BE7846740CF290008334
:100A9000E0FCA3E0FDA3E0FEA3E0FF081218AB908A
:100AA00000671213A87846740DF2900057E0FCA37B
:100AB000E0FDA3E0FEA3E0FF081218AB90008FE07A
:100AC000FCA3E0FDA3E0FEA3E0FF784B1218AB7B94
:100AD000097D057F011213BE7846740EF290008BDB
:100AE000E0FCA3E0FDA3E0FEA3E0FF081218AB903A
:100AF0000087E0FCA3E0FDA3E0FEA3E0FF784B123B
:100B000018AB7B0A7D067F021213BE7846740FF283
:100B1000900063E0FCA3E0FDA3E0FEA3E0FF081269
:100B200018AB90007BE0FCA3E0FDA3E0FEA3E0FF98
:100B3000784B1218AB7B0B7D077F031213BE7846F0
:100B4000740FF2900053E0FCA3E0FDA3E0FEA3E0ED
:100B5000FF081218AB90006FE0FCA3E0FDA3E0FEDD
:100B6000A3E0FF784B1218AB7B0A7D05E4FF12135C
:100B7000BE7846740CF290006BE0FCA3E0FDA3E0AD
:100B8000FEA3E0FF081218AB90005FE0FCA3E0FDBD
:100B9000A3E0FEA3E0FF784B1218AB7B0B7D067F32
:100BA000011213BE7846740DF2900077E0FCA3E0CA
:100BB000FDA3E0FEA3E0FF081218AB90005BE0FC91
:100BC000A3E0FDA3E0FEA3E0FF784B1218AB7B0887
:100BD0007D077F021213BE7846740EF2900073E018
:100BE000FCA3E0FDA3E0FEA3E0FF081218AB900019
:100BF0007FE0FCA3E0FDA3E0FEA3E0FF784B12182A
:100C0000AB7B097D047F031213BE7846740CF2900F
:100C10000087E0FCA3E0FDA3E0FEA3E0FF081218BC
:100C2000AB90007F1213A87846740DF290006FE02D
:100C3000FCA3E0FDA3E0FEA3E0FF081218AB9000C8
:100C40008BE0FCA3E0FDA3E0FEA3E0FF784B1218CD
:100C5000AB7B097D057F011213BE7846740EF290BE
:100C60000083E0FCA3E0FDA3E0FEA3E0FF08121870
:100C7000AB900057E0FCA3E0FDA3E0FEA3E0FF780B
:100C80004B1218AB7B0A7D067F021213BE784674A6
:100C90000FF290005FE0FCA3E0FDA3E0FEA3E0FF05
:100CA000081218AB900077E0FCA3E0FDA3E0FEA3E0
:100CB000E0FF784B1218AB7B0B7D077F031213BE4E
:100CC0007846740FF2900067E0FCA3E0FDA3E0FE1D
:100CD000A3E0FF081218AB900053E0FCA3E0FDA3D3
:100CE000E0FEA3E0FF784B1218AB7B0A7D05E4FF22
:100CF0001213BE7846740CF290008FE0FCA3E0FD66
:100D0000A3E0FEA3E0FF081218AB900063E0FCA391
:100D1000E0FDA3E0FEA3E0FF784B1218AB7B0B7D58
:100D2000067F011213BE7846740DF2900073E0FC4A
:100D3000A3E0FDA3E0FEA3E0FF081218AB90006B58
:100D4000E0FCA3E0FDA3E0FEA3E0FF784B1218ABAC
:100D50007B087D077F021213BE7846740EF2900066
:100D60005BE0FCA3E0FDA3E0FEA3E0FF081218ABEC
:100D700090007BE0FCA3E0FDA3E0FEA3E0FF784B46
:100D80001218AB7B097D047F031213BE7846740CE6
:100D9000F290006BE0FCA3E0FDA3E0FEA3E0FF08FF
:100DA0001218AB90008F1213A87846740DF29000C1
:100DB0008BE0FCA3E0FDA3E0FEA3E0FF081218AB6C
:100DC000900077E0FCA3E0FDA3E0FEA3E0FF784BFA
:100DD0001218AB7B097D057F011213BE7846740E95
:100DE000F290007FE0FCA3E0FDA3E0FEA3E0FF089B
:100DF0001218AB90005FE0FCA3E0FDA3E0FEA3E0CF
:100E0000FF784B1218AB7B0A7D067F021213BE7867
:100E100046740FF2900053E0FCA3E0FDA3E0FEA3B4
:100E2000E0FF081218AB900073E0FCA3E0FDA3E024
:100E3000FEA3E0FF784B1218AB7B0B7D077F0312FC
:100E400013BE7846740FF2900083E0FCA3E0FDA38C
:100E5000E0FEA3E0FF081218AB90005BE0FCA3E00B
:100E6000FDA3E0FEA3E0FF784B1218AB7B0A7D05E3
:100E7000E4FF1213BE7846740CF2900087E0FCA3E6
:100E8000E0FDA3E0FEA3E0FF081218AB90006FE0C6
:100E9000FCA3E0FDA3E0FEA3E0FF784B1218AB7BC0
:100EA0000B7D067F011213BE7846740DF290005739
:100EB000E0FCA3E0FDA3E0FEA3E0FF081218AB9066
:100EC0000063E0FCA3E0FDA3E0FEA3E0FF784B128B
:100ED00018AB7B087D077F021213BE7846740EF2B2
:100EE00090007BE0FCA3E0FDA3E0FEA3E0FF08127E
:100EF00018AB900067E0FCA3E0FDA3E0FEA3E0FFD9
:100F0000784B1218AB7B097D047F031213BE784621
:100F1000740CF290007BE0FCA3E0FDA3E0FEA3E0F4
:100F2000FF081218AB90005B1213A87846740DF2FC
:100F3000900073E0FCA3E0FDA3E0FEA3E0FF081235
:100F400018AB900063E0FCA3E0FDA3E0FEA3E0FF8C
:100F5000784B1218AB7B097D057F011213BE7846D2
:100F6000740EF290006FE0FCA3E0FDA3E0FEA3E0AE
:100F7000FF081218AB90006BE0FCA3E0FDA3E0FEBD
:100F8000A3E0FF784B1218AB7B0A7D067F02121399
:100F9000BE7846740FF2900057E0FCA3E0FDA3E09A
:100FA000FEA3E0FF081218AB900067E0FCA3E0FD91
:100FB000A3E0FEA3E0FF784B1218AB7B0B7D077F0D
:100FC000031213BE7846740FF290008FE0FCA3E08A
:100FD000FDA3E0FEA3E0FF081218AB90007FE0FC49
:100FE000A3E0FDA3E0FEA3E0FF784B1218AB7B0A61
:100FF0007D05E4FF1213BE7846740CF2900077E092
:10100000FCA3E0FDA3E0FEA3E0FF081218AB9000F4
:101010008BE0FCA3E0FDA3E0FEA3E0FF784B1218F9
:10102000AB7B0B7D067F011213BE7846740DF290E8
:10103000005FE0FCA3E0FDA3E0FEA3E0FF081218C0
:10104000AB900083E0FCA3E0FDA3E0FEA3E0FF780B
:101050004B1218AB7B087D077F021213BE784674D3
:101060000EF2900087E0FCA3E0FDA3E0FEA3E0FF0A
:10107000081218AB900053E0FCA3E0FDA3E0FEA330
:10108000E0FF784B1218AB7B097D047F031213BE7F
:10109000E4783EF2783EE2FFC39408748094805076
:1010A00050EF25E025E02493F582E43400F583C079
:1010B00083C082E0FCA3E0FDA3E0FEA3E0FFE22505
:1010C000E025E024B3F582E43400F583E0F8A3E002
:1010D000F9A3E0FAA3E0FBEF6BFFEE6AFEED69FD1A
:1010E000EC68FCD082D08312189F783EE204F28034
:0110F000A35C
:1010F1009000A3E0FCA3E0FDA3E0FEA3E0647FFB7E
:10110100EE6452FAED640EF9EC6451F8900093E04C
:10111100FCA3E0FDA3E0FEA3E06447FFEE64E6FE6E
:10112100ED6408FDEC646BFCEF6BFFEE6AFEED69AC
:10113100FDEC68FC783F1218AB783F080808E2FF25
:10114100783BE2FB08E2FA08E2F9EF1217F0783F88
:10115100E2FC08E2FD08E2FE08E2FF7808121879D5
:10116100783BE2FB08E2FA08E2F9900001EF12187D
:1011710002783FE2FC08E2FD08E2FE08E2FF781097
:10118100121879900002EF121802783FE2FC08E28F
:10119100FD08E2FE08E2FF7818121879900003EFCB
:0311A1001218021F
:1011A4009000A7E0FCA3E0FDA3E0FEA3E0648CFBB9
:1011B400EE6468FAED6405F9EC649BF8900097E03E
:1011C400FCA3E0FDA3E0FEA3E06485FFEE64AEFEB5
:1011D400ED6467FDEC64BBFCEF6BFFEE6AFEED694A
:1011E400FDEC68FC783F1218AB783F080808E2FF72
:1011F400783BE2FB08E2FA08E2F9900004EF1218E7
:1012040002783FE2FC08E2FD08E2FE08E2FF78080B
:10121400121879900005EF121802783FE2FC08E2F8
:10122400FD08E2FE08E2FF7810121879900006EF3C
:10123400121802783FE2FC08E2FD08E2FE08E2FF31
:0C1244007818121879900007EF121802B9
:101250009000ABE0FCA3E0FDA3E0FEA3E064ABFBE9
:10126000EE64D9FAED6483F9EC641FF890009BE01A
:10127000FCA3E0FDA3E0FEA3E06472FFEE64F3FED6
:10128000ED646EFDEC643CFCEF6BFFEE6AFEED6915
:10129000FDEC68FC783F1218AB783F080808E2FFC5
:1012A000783BE2FB08E2FA08E2F9900008EF121836
:1012B00002783FE2FC08E2FD08E2FE08E2FF78085F
:1012C000121879900009EF121802783FE2FC08E248
:1012D000FD08E2FE08E2FF781012187990000AEF8C
:1012E000121802783FE2FC08E2FD08E2FE08E2FF85
:0C12F000781812187990000BEF12180209
:1012FC009000AFE0FCA3E0FDA3E0FEA3E06419FBCB
:10130C00EE64CDFAED64E0F9EC645BF890009FE0DC
:10131C00FCA3E0FDA3E0FEA3E0643AFFEE64F5FE5F
:10132C00ED644FFDEC64A5FCEF6BFFEE6AFEED691E
:10133C00FDEC68FC783F1218AB783F080808E2FF18
:10134C00783BE2FB08E2FA08E2F990000CEF121885
:10135C0002783FE2FC08E2FD08E2FE08E2FF7808B2
:10136C0012187990000DEF121802783FE2FC08E297
:10137C00FD08E2FE08E2FF781012187990000EEFDB
:10138C00121802783FE2FC08E2FD08E2FE08E2FFD8
:0C139C00781812187990000FEF02180268
:030000000219964C
:0C199600787FE4F6D8FD7581400219DD71
:1017AA00BB010689828A83E0225002E722BBFE023D
:0917BA00E32289828A83E4932270
:1017C300BB010CE58229F582E5833AF583E02250DB
:1017D30006E92582F8E622BBFE06E92582F8E22225
:0D17E300E58229F582E5833AF583E493223F
:1017F000BB010689828A83F0225002F722BBFE01D8
:02180000F322D1
:10180200F8BB010DE58229F582E5833AF583E8F01C
:10181200225006E92582C8F622BBFE05E92582C8C8
:02182200F222B0
:10182400BC000BBE0029EF8DF084FFADF022E4CCA8
:10183400F875F008EF2FFFEE33FEEC33FCEE9DEC71
:10184400984005FCEE9DFE0FD5F0E9E4CEFD22EDB7
:10185400F8F5F0EE8420D21CFEADF075F008EF2F01
:10186400FFED33FD4007985006D5F0F222C398FDF2
:051874000FD5F0EA228F
:10187900E8600FECC313FCED13FDEE13FEEF13FF4D
:03188900D8F12271
:10188C00E8600FEFC333FFEE33FEED33FDEC33FCBA
:03189C00D8F1225E
:0C189F00ECF0A3EDF0A3EEF0A3EFF022BC
:0C18AB00ECF208EDF208EEF208EFF22279
:1018B700A8828583F0D083D0821218CE1218CE1258
:1018C70018CE1218CEE473E493A3C583C5F0C5837D
:1018D700C8C582C8F0A3C583C5F0C583C8C582C87B
:0118E70022DE
:1019A200021C2EE493A3F8E493A34003F68001F211
:1019B20008DFF48029E493A3F85407240CC8C33346
:1019C200C4540F4420C8834004F456800146F6DF15
:1019D200E4800B0102040810204080901CC2E47EC7
:1019E200019360BCA3FF543F30E509541FFEE4930A
:1019F200A360010ECF54C025E060A840B8E493A3D1
:101A0200FAE493A3F8E493A3C8C582C8CAC583CAFB
:101A1200F0A3C8C582C8CAC583CADFE9DEE780BEB3
:011CFE0000E5
:00000001FF
