:103DBB001241591242CB7BFE7A007900E47804F26F
:103DCB0008F27D4012288AD3EF94007480948040CF
:0C3DDB00E57BFE7A00790012000380DA1C
:10415900759850438E40538EFE53890F758BD075D9
:074169008DFFC2ABD28E22D4
:0842A8008F993099FDC29922A3
:103FFF0078CE120B9578CE120B7C1207F1601278E7
:10400F00CEE475F001120B851207F1FF1242A88062
:02401F00E42299
:103D5A00EFC4540FFEEF540FFDEEC3940A7480941F
:103D6A0080EE5004243080022437FF1242A8EDC3AB
:103D7A00940A74809480ED5004243080022437FF22
:033D8A001242A83A
:013D8D002213
:0C3993007840120B957843ECF208EDF23E
:10399F00E408F208F27843E2FE08E2FF08E2FC08CE
:1039AF00E2FDC39FEC9E50227840120B7C8D828CDF
:1039BF008312080AFF123D5A7F201242A87846E26E
:0A39CF002401F218E23400F280CB6C
:0139D90022CB
:04348A00AB07AA06DC
:10348E00E478D3F2EB4A70057F300242A8D3EB9476
:10349E0000EA9400402C7C007D0AAF03AE021208B5
:1034AE007DED2430FF78D3E2FE04F274CE2EF8EFD9
:1034BE00F27C007D0AAF03AE0212087DAA06AB07AE
:1034CE0080CB78D3E2D3940074809480400DE214C4
:0B34DE00F224CEF8E2FF1242A880E7C3
:0134E90022C0
:0842B0003098FDC298AF99227D
:09288A007800120B957803EDF2C1
:10289300E47806F2780A80377803E214FF7806E2D8
:1028A300C39F507130982DC29808E599F2E2FF64F6
:1028B3000A6062EF640D605D7800120B7C7806E2BB
:1028C300FE04F28E82758300EF120849E47808F261
:1028D30008F280C47804E2FE08E2FFD39400EE9489
:1028E3000040B57809E22401F218E23400F2C3088B
:1028F300E29F18E29E501EE4780AF208F2C3780BB6
:10290300E294E818E29403508F08E22401F218E2FB
:102913003400F280E87800120B7C7806E2FFF5823F
:07292300758300E40208497E
:063900008153A081540078
:103D8E00E4FDFCC3ED9FEC9E5022E478E6F208F2CF
:103D9E0078E7E22401F218E23400F208E2B488F087
:0C3DAE0018E2B413EB0DBD00010C80D72F
:013DBA0022E6
:0C426C0090FE82E030E6F9E054BFF02242
:1040E70053B1F353B2F353C9CF43CA30C2CCC2CD95
:0F40F70043BA8090FE8074F9F090FE82E4F022CC
:09428D0090FE817401F002426C04
:0942960090FE817406F002426CF6
:0E42270090FE86EFF090FE817402F002426C71
:0F42090090FE817404F012426C90FE87E0FF2259
:0D406500E47854F212428D18E2FF12422757
:1040720090FE817403F012426C90FE82E030E10205
:04408200D322C32260
:104170003000047F0180027F0090FE82EFF090FE0D
:07418000817405F002426C9E
:1039DA00AB07AA061240655005087401802AEA124C
:1039EA00406E500678547402801EAF0312422712AA
:1039FA004072500678547403800EAF0512422712A3
:103A0A004072500878547404F20242961242967F29
:073A1A00057E00123D8E2223
:04381200AD07AC064C
:103816001240655005087401802CEC12406E50066B
:10382600785474028020AF05124227124072500667
:1038360078547403801012428D7853E2440112408A
:103846006E500A087405F21242967F00221242094F
:0C385600AE07D200124170124296AF067D
:013862002243
:09429F00EF25E0FF7853EFF22255
:0F3B3400786AEEF208EFF208ECF208EDF2A9035E
:103B4300E408F208F2786CE2FE08E2FF08E2FC08FF
:103B5300E2FDC39FEC9E501B786BE22DFF18E23C05
:103B6300FEAD011239DA786FE22401F218E2340073
:033B7300F280D20B
:013B7600222C
:103BBA007847EEF208EFF208120B957849120B7C5F
:103BCA001207F16020784708E2FF2401F218E2FEAA
:103BDA003400F27849E475F001120B851207F1FD01
:103BEA001239DA80D67847E2FE08E2FFE4FD0239AC
:013BFA00DAF0
:0B360400784CEEF208EFF208120B9574
:10360F00E47852F218E27002FF227851E214FF08B8
:10361F00E2C39F5028784C08E2FF2401F218E2FE23
:10362F003400F2123812784E120B7C7852E2FE04FC
:10363F00F28E82758300EF120849EF70CD784E122B
:0F364F000B7C7852E2FFF582758300E412084984
:01365E002249
:103FB300E47831F208F27831E2FE08E2FFC3EE94CE
:103FC300205012E4FD1239DA7832E22401F218E2C9
:053FD3003400F280E162
:013FD80022C6
:0642C0005550415353006C
:103DE70078D1EEF208EFF22401FFE43EFE1238121A
:103DF700EF7F00FEC007C00678D1E2FE08E2FF129F
:0C3E07003812EFFDD0E0FED0E04DFF22AD
:104021007865EEF208EFF208ECF208EDF21239DAF7
:104031007866E22401FF18E23400FE7867E2FD02AF
:0240410039DA6A
:103C7B007861120B957E007F287D007861120B7C9A
:103C8B00120DBF7861120B7C740112083778611228
:103C9B000B7C900001E4120849900002741012088A
:093CAB0049900003740802084965
:051E200078CD120B95C6
:101E25007F507E0012429F7F017E0012381278CDCE
:101E3500120B7CEF1208377F4E7E0012381278CDD8
:101E4500120B7C900001EF1208497F4F7E0012387B
:101E55001278CD120B7C900002EF1208497F507E5C
:101E65000012381278CD120B7C900003EF1208494E
:101E7500E478D0F278D0E2FF7E00C39410748094A9
:101E8500805029EF2402FFEE33FE12381278CD126E
:101E95000B7CE92404F9E43AFA78D0E27C0029F9CC
:101EA500EC3AFAEF120837E204F280C8E478D0F28F
:101EB50078D0E2FF7E00C39412748094805029EF9D
:101EC500243CFFEE33FE12381278CD120B7CE92448
:101ED50014F9E43AFA78D0E27C0029F9EC3AFAEF01
:101EE500120837E204F280C878CD120B7C900025E9
:101EF500E41208497F227E00123DE778CD120B7C63
:091F0500900026EE8FF00209A104
:052491007865120B95B7
:10249600E47869F27865120B7C90000112080AFF55
:1024A6001207F16FFF90000212080A6FFF900003F7
:1024B60012080A6F7869F2E418F27868E2FFC394AA
:1024C6001074809480502608E2FE7865120B7CE931
:1024D6002404F9E43AFAEF7C0029F9EC3AFA1207F7
:1024E600F1FFEE6F7869F218E204F280CDE47868C5
:1024F600F27868E2FFC3941274809480502608E252
:10250600FE7865120B7CE92414F9E43AFAEF7C00B4
:1025160029F9EC3AFA1207F1FFEE6F7869F218E240
:1025260004F280CD7869E2FD7865120B7C90002676
:0F2536001208FDFBAAF0EA6BFFED6FFF7869F268
:012545002273
:051D2C007861120B9527
:101D31007F507E0012429F7861120B7C1207F1FDE9
:101D41007F017E001239DA7861120B7C900001125A
:101D5100080AFD7F4E7E001239DA7861120B7C9001
:101D6100000212080AFD7F4F7E001239DA786112F3
:101D71000B7C90000312080AFD7F507E001239DAB5
:101D8100E47864F27864E2FDFF7E00C3941074800D
:101D910094805029EF2402FFEE33FE7861120B7C10
:101DA100E92404F9E43AFA7C00E92DF9EC3AFA1253
:101DB10007F1FD1239DA7864E204F280C7E478644D
:101DC100F27864E2FDFF7E00C39412748094805027
:101DD10029EF243CFFEE33FE7861120B7CE92414D9
:101DE100F9E43AFA7C00E92DF9EC3AFA1207F1FD2F
:101DF1001239DA7864E204F280C77861120B7C90C0
:101E010000261208FDFDACF07F227E0012402178F1
:0F1E110061120B7C122491AD07E4FFFE0239DA57
:05327F007861120B95BF
:103284007864120B7C12419D7868EFF2D394117428
:1032940080948040037411F2E47867F27867E2FF67
:1032A400C3941274809480503C08E2FEEFC39E5095
:1032B400137864120B7C7867E2F582758300120838
:1032C4000AFF80027F007861120B7CE92414F9E480
:1032D4003AFA7867E27C0029F9EC3AFAEF120837F7
:0532E400E204F280B7D6
:0132E90022C2
:102DB2007861120B957E007F107D00E92404F9E40E
:102DC2003AFA120DBF7864120B7CE94A4B602778FD
:102DD20064120B7C12419DEF4E601B7864120B7CD7
:102DE200A801AC02AD037BFF7A4279C0120DA2EFBB
:102DF2003395E04F700C7861120B7C1207F154F797
:102E0200802D7864120B7C12419DAD077861120B04
:102E12007CE92404F9E43AFA787A120B9578641280
:102E22000B7C1215E77861120B7C1207F144081231
:032E32000837223C
:0E4235007F507E0012429F7F017E00023812F1
:104187007855EFF27F507E0012429F7855E2FD7F0F
:06419700017E000239DA8E
:0E4243007F507E0012429F7F227E00023DE7E8
:10410600124243C3EF94FFEE94FF50050FBF000128
:0C4116000EAD07AC067F227E00024021A7
:103E9600EF24FE60121460141460161460182404D3
:103EA60070147E107F00227E207F00227E407F00DD
:0A3EB600227E807F0022E4FEFF223E
:063F14007D107C007E0020
:103F1A00786DEEF208EFF208ECF208EDF21239DAF7
:103F2A00786EE22401FF18E23400FE786FE2FD02A7
:023F3A0039DA72
:103E13007856EEF208EFF22401FFE43EFE12381268
:103E2300EF7F00FEC007C0067856E2FE08E2FF12ED
:0C3E33003812EFFDD0E0FED0E04DFF2281
:0342CB000240E7C7
:0519FE007861120B9559
:101A03007867E2FF123E9608EEF208EFF24E70049A
:101A1300FE7F0D227F507E0012429FE4FBFD7C205F
:101A2300FFFE123B347D017F017E001239DAE4FDB3
:101A33007F4EFE1239DA7D107F4F7E001239DA7D38
:101A4300087F507E001239DA7D517F517E001239B2
:101A5300DA7867E2FD7F527E001239DA7868E2FCB9
:101A630008E2FD7F537E00123F1A7D207C007F55E4
:101A73007E00123F1AE4FDFC7F57FE123F1A78687E
:101A8300E2FC08E2FD7F597E00123F1A7F5B123FA2
:101A9300147F5D123F14E4FD7F5FFE1239DA7D018E
:101AA3007F607E001239DA7D007C1C7F617E00122C
:101AB3003F1A7968E3C4F854F0C868FE09E3C454D4
:101AC3000F487803CEC313CE13D8F9FDAC067F635A
:101AD3007E00123F1A7D007C017F657E00123F1A53
:101AE3007D007C107F697E00123F1AE4FDFC7F6D50
:101AF300FE123F1A7D0D7F6F7E001239DA7868E29D
:0E1B0300FE08E2FF7867E2FD122B86E4FEFF8B
:011B110022B1
:0A2B8600786AEEF208EFF208EDF2B3
:102B90007F517E0012429F7D5AE4FFFE1239DA7D9A
:102BA000017F017E001239DA786CE2FD7F027E003F
:102BB0001239DA786AE2FC08E2FD7F037E00123FF8
:102BC0001A7D207C007F057E00123F1AE4FDFC7F09
:102BD00007FE123F1A7D107C007F097E00123F1A0B
:102BE0007D107C007F0B7E00123F1AE4FD7F0DFEFE
:102BF0001239DAE4FD7F0EFE1239DA786CE2645B9A
:102C0000FD786AE2FA08E2FBEAFFEB6F6DFD7F0FE9
:052C10007E000239DA2C
:1041B2007F507E0012429FE4FB7D107C1BFF7E013C
:0341C200023B3489
:0A4283007F507E0012429F023FB3FD
:1039060050005E417263686976756D5531323334A5
:10391600353637202021000000000000000000009E
:103926000000000000000000000000000000000091
:063936000000000000008B
:103B7700C003C002C0017B007A007921787A120B5A
:103B870095D001D002D0037D101215E77F0FEFC348
:103B9700942074809480501474212FF9745E2FF54B
:103BA70082E43400F583E047F70F80E27B007A0078
:023BB700792172
:013BB90022E9
:1041E9006A09E667BB67AE853C6EF372A54FF53A7F
:0915E7007876120B957879EDF28B
:1015F000D394107480948040037410F2E4FFEFC31E
:101600009410748094805016EF9041E993FEEF247B
:101610009EFDEE6DFE74082FF8A6060F80E0E4FF35
:101620007879E2FEEFC39E505D7876120B7C8F8254
:1016300075830012080AFEEF75F01DA46E787DF226
:10164000E2FEEF540F2408F8EE26F6EF2407540FBD
:101650002408F9EE33333354F8FE787DE2C4135492
:10166000074E67F7EF540F2408F8E6FE25E0FDEE7D
:10167000C413131354014DFEEF2403540F2408F830
:10168000EE26F60F809A7879E22410781766F6E451
:10169000FEEEC39408748094804003021736E4FF82
:1016A000EFC3941074809480503D74082FF8E6784E
:1016B0007EF2EF04540FFD2408F8E6F9787FF21863
:1016C000E2FC2924372EFB74082FF8A603ECC43360
:1016D00054E0FC787EE2131313541F4CFC74082D65
:1016E000F8EC66F60F80B97F10AD071FD3ED9400BC
:1016F00074809480403C74082FF8E6787EF2EF24E2
:101700000F540FFD2408F8E6F9787FF218E2FC295F
:10171000245CFB74082FF8A603EC25E025E0FC7898
:101720007EE2C4131354034CFC74082DF8EC66F6E7
:1017300080B70E021691E4FFEFC39410748094807A
:10174000503874082FF8E6FE787EF2EF2408540F24
:101750002408F8E6FD787FF218E2FCC454F0FBECB4
:10176000C4540F4BFCEE6D6CFE787A120B7C8F82AA
:0A177000758300EE1208490F80BED9
:01177A00224C
:10177B002B000D0A00455252003000444154412BBE
:10178B00002C003D005B003B005D280029007C0025
:10179B00524553554C5400494E49543D302B00563D
:1017AB00312E302E3000494E464F2B00454E4142D4
:1017BB004C45440044495341424C45440041455338
:1017CB0000584F5200434553415200524334004E90
:1017DB004F4E005354415455532B005553414745DD
:1017EB002B0056455253494F4E2B0050312E300093
:1017FB0053312E3000415554482B300D0A004155C2
:10180B0054482B320D0A00415554482B310D0A0018
:10181B00415243484956554D00424C4F434B003FB4
:10182B0069643D00444154412B5B00290D0A004182
:10183B005400494E4954004543484F00494E464FCA
:10184B000053544154555300555341474500564599
:10185B005253494F4E004155544800504153535732
:10186B004F52440043524541544500564552494658
:10187B005900454E41424C450044495341424C4569
:10188B00005645524946594F5554004348414E471F
:10189B00450052455345540052454144004E414D7D
:1018AB0045004B455900575249544500524157008A
:1018BB0044454C455445005550444154450047451B
:1018CB005400414C4C0053495A4500464F524D4130
:0618DB00540044455600D4
:0E393C00825C0000815800815B00825900000F
:093D2500E22404FF18E23400FE60
:103D2E0078E2EEF208EFF22401FFE43EFE123812C2
:103D3E00EF7F00FEC007C00678E2E2FE08E2FF1247
:0C3D4E003812EFFDD0E0FED0E04DFF2267
:063F3C001208FDFDACF0CF
:103F420078E2EEF208EFF208ECF208EDF21239DA5A
:103F520078E3E22401FF18E23400FE78E4E2FD0295
:023F620039DA4A
:083EC0007BFF7A1779807D0970
:103EC80078CDEDF2123FFF7BFF7A17797B123FFF27
:103ED80078CDE2FF7E0012348A7BFF7A17797D0263
:023EE8003FFF9A
:1037BF007A1879247BFF787E120B957822120B7C76
:1037CF00787B120B95787B120B7CE94A6009787E27
:1037DF00120B7CE94A7004E4FEFF22787B120B7C0B
:1037EF00A801AC02AD03C000787E120B7CD0001292
:1037FF000DA2EF3395E04F7005FE7F0180047E0030
:03380F007F002215
:053128007831120B9547
:10312D00E94A700280647831120B7C12419DEFC325
:10313D0094027480948040357831120B7C1207F123
:10314D0064227029EF7C0024FFF582EC34FFF583B7
:10315D0012080AB422177E0074FF2FF582EE34FF99
:10316D00F5837831120B7CE41208498015C3EF9476
:10317D00017480948040137831120B7C1207F1B4E6
:0F318D002208E92401F9E43AFA227831120B7C86
:01319C002210
:03269800120B7CA6
:05269B0078A2120B956E
:1026A00078A5120B2E00000000E94A7003FEFF22FD
:1026B00078A2120B7C1207F1FF3395E0FEC3EF9472
:1026C00030EE648094804071D3EF9439EE6480944E
:1026D0008050661207F1FF3395E0FEEF24D0FFEE45
:1026E00034FFFE3395E0FDFCC004C005C006C00702
:1026F000E47F0AFEFDFC78A5120B151209DBD0035E
:10270000D002D001D0001209CE78A5120B22E47FAE
:10271000FF7EFFFDFC78A5120B15D3120AF8400BC3
:1027200078A5120B2E0000FFFF800E78A4E2240192
:0E273000F218E23400F20226B078A5120B096E
:01273E002278
:0F41F90012269BD3EF94FFEE940040037FFF222A
:014208002293
:1033BD00EFFD3395E0FCC3ED9430EC6480948040D8
:1033CD0011D3ED9439EC648094805006C3EF9430A2
:1033DD00FF22EFFD3395E0FCC3ED9441EC64809446
:1033ED00804010D3ED9446EC648094805005EF241A
:1033FD00C9FF22EFFD3395E0FCC3ED9461EC6480D1
:10340D0094804010D3ED9466EC648094805005EF69
:07341D0024A9FF227FFF221A
:052F3B0078A2120B95C5
:102F4000E478A9F2E94A7002FF2278A2120B7C12FF
:102F500007F1FF606090000112080A605878A8E24B
:102F6000FE08E2C39E504E1233BD08EFF278A21263
:102F70000B7C90000112080AFF1233BD78ABEFF210
:102F800018E2FFF4602F08E2FEF46029EFC454F069
:102F9000FFEE4FFF78A5120B7C78A9E2FE04F28EBB
:102FA00082758300EF12084978A4E22402F218E245
:092FB0003400F2809578A9E2FFDB
:012FB90022F5
:0930B1007834EDF27831120B9530
:1030BA00E4FFFEE94A700122D37839E29FEE648088
:1030CA00F5F018E2648095F040537831120B7CC019
:1030DA0003C002C0017835120B7C0FEFAC067001F9
:1030EA000E14F5828C837403120B6B120B9E7831CB
:1030FA00120B7C1207F1FD60127834E26D600C1835
:10310A00E22401F218E23400F280E3ED600F783134
:0D311A00E475F001120B85E4120837809B6C
:013127002285
:1034EA007BFE7A0179A3121E2078A3E220E00280F3
:0C34FA003878A3E230E345785BE27040D4
:1035060078CC04F2E418F278CBE2FFC3941074800E
:103516009480501474A72FF8E26006E478CCF28009
:103526000778CBE204F280DF78CCE2700E7BFF7A7C
:103536001779807D03123EC87F0022785B7401F202
:023546007F0103
:013548002260
:1040A7007BFE7A0179A3121E2078A3E230E10E7B12
:0F40B700FF7A1779807D0E123EC87F00227F01AD
:0140C60022D7
:052A6000785F120B95E8
:102A650078757401F2FFE4FEEEC3941074809480CF
:102A75005020785F120B7CE92404F9E43AFAEE7CE5
:102A85000029F9EC3AFA1207F16004E4FF80030E1D
:102A950080D6EF60037F02227862120B7C12419D83
:102AA500AD077BFE7A017965787A120B957862120B
:102AB5000B7C1215E7E4FEEEC394107480948050ED
:102AC50029785F120B7CE92404F9E43AFAEE7C00DC
:102AD50029F9EC3AFA1207F1FF74652EF8E26F60F6
:0E2AE50006E47875F280030E80CD7875E2FF6E
:012AF30022C0
:073EEA00120B95E4FD7F02BD
:103EF10078A2EDF27858EFF21234EAEF7002800BFB
:103F010078A2E2600B1240A7EF70057858F2FF2209
:033F11007F01220B
:0542C600785BE2FF221D
:10404300785BE2601CD318E2940018E294004011FC
:1040530008E224FFFFF218E234FFF24F7003785BAB
:02406300F22247
:0842B800785CEEF208EFF2223F
:091C260078A9120B958F828E83C0
:101C2F007C007D2512086BE42F78ADF2EE3401189D
:101C3F00F2AE83C3EE940140037F002278ACE2FE44
:101C4F0008E2FF123D2E78A9120B7CEE8FF01209DD
:101C5F008278A9120B7C1208D2FFAEF0BEFF06BF2E
:101C6F00FF037F0022E478AEF278AEE2FFC3941454
:101C7F0074809480503418E22402FD18E23400FC82
:101C8F007E00ED2FFFEE3CFE12381278A9120B7C6E
:101C9F00E92402F9E43AFA78AEE27C0029F9EC3A49
:101CAF00FAEF120837E204F280BF78ADE22416FF94
:101CBF0018E23400FE12381278A9120B7C9000162D
:101CCF00EF12084978ADE22417123D2878A9120BBC
:101CDF007C900017EE8FF01209A178ADE224191253
:101CEF003D2878A9120B7C900019EE8FF01209A1F4
:101CFF0078ADE2241B123D2878A9120B7C90001BB3
:101D0F00EE8FF01209A190001D120B47000000008A
:0C1D1F00900021120B47000000007F0123
:011D2B002295
:0720B900E2FE08E2FF7BFEDE
:0520C00078C8120B9529
:1020C5007C007D2512086BE42FFFEE3401FE78CBF2
:1020D500F208EFF21208D2FDACF0123F42E478CDDF
:1020E500F278CDE2FFC3941474809480503818E2DE
:1020F5002402FD18E23400FCEFF5827583002DFF04
:10210500E5833CFE78C8120B7CE92402F9E43AFA2F
:10211500E92582F9E5833AFA1207F1FD1239DA78F1
:10212500CDE204F280BB78CCE22416FF18E234003D
:10213500FE78C8120B7C90001612080AFD1239DAD7
:1021450078CCE22417FF18E23400FE78C8120B7C25
:10215500900017123F3C78CCE22419FF18E23400B6
:10216500FE78C8120B7C900019123F3C78CCE22413
:102175001BFF18E23400FE78C8120B7C90001B127E
:0821850008FDFDACF0023F4231
:10365F007C007D2512086BE42FFFEE3401FE7862AB
:10366F00F208EFF274FFFDFC123F42E47864F27847
:10367F0064E2FFC3941474809480501E18E22402F5
:10368F00FD18E23400FC7E00ED2FFFEE3CFEE4FD62
:10369F001239DA7864E204F280D57863E22416FFF7
:0A36AF0018E23400FEE4FD0239DAEF
:103AAC00E47861F208F27861E2FE08E2FFC3EE947A
:103ABC0001502C7C007D2512086BE42FFFEE3401A5
:103ACC00FE123D2EBEFF0BBFFF087861E2FE08E23E
:103ADC00FF227862E22401F218E23400F280C77E01
:033AEC00FF7FFF5A
:013AEF0022B4
:10371100E47863F208F27861F208F27861E2FE0877
:08372100E2FFC3EE94015033F6
:103729007BFE7A017965121C26EF601A7863E2FE46
:1037390008E2FF08E2FC08E2FDD39FEC9E4007780F
:0637490063ECF208EDF252
:10374F007862E22401F218E23400F280C07864E279
:08375F002401FF18E23400FE12
:01376700223F
:0B37680078A2EEF208EFF208120B95B9
:10377300E478A7F208F278A7E2FE08E2FFC3EE942A
:1037830001503478A4120B7C121C26EF601C78A421
:10379300120B7C1208D2FF78A3E2B5070D18E2B52D
:1037A300F00878A7E2FE08E2FF2278A8E22401F2FB
:0B37B30018E23400F280BF7EFF7FFFB1
:0137BE0022E8
:052D2D007886120B95F1
:102D3200E4788CF208F2788CE2FE08E2FFC3EE94AB
:102D42000150687889120B7C121C26EF6050E4FF58
:102D5200EFC3941474809480502D7886120B7C8F6C
:102D62008275830012080AFE601D7889120B7CE9C5
:102D72002402F9E43AFAEF7C0029F9EC3AFA120754
:102D8200F1B506030F80C97886120B7C8F8275839A
:102D92000012080A7008788CE2FE08E2FF22788DA1
:0F2DA200E22401F218E23400F2808B7EFF7FFF03
:012DB10022FF
:103F6400C003C002C0017BFE7A0179617889120B1B
:103F740095D001D002D003122D2DEFF47002EEF48F
:073F840060037F01227F00B2
:013F8B002213
:052E35007861120B950D
:102E3A00E47867F27867E2FFC39414748094805050
:102E4A001F7861120B7CE92402F9E43AFA7E00E960
:102E5A002FF9EE3AFAE41208377867E204F280D4DE
:102E6A007864120B7CE94A6044E47867F27867E296
:102E7A00FFC394147480948050337864120B7C8F4F
:102E8A008275830012080AFF60237867E2FE786180
:102E9A00120B7CE92402F9E43AFAEE7C0029F9ECF7
:0D2EAA003AFAEF1208377867E204F280C0B0
:012EB70022F8
:053A21007881120B95F5
:103A2600E4FFEFC394147480948050297881120BBC
:103A36007CE92402F9E43AFAEF7C0029F9EC3AFA37
:103A46001207F1FE7884120B7C8F82758300EE12CA
:103A560008490F80CD7884120B7C900014E402088C
:013A66004916
:0F4218007C007D0D12086BE42FFFEE3410FE22A8
:07218D00E2FE08E2FF7BFE09
:0521940078DB120B9541
:1021990012421878DEEEF208EFF2123D2E78DB12C9
:1021A9000B7CEE8FF012098278DFE22402123D28BF
:1021B90078DB120B7C900002EE8FF01209A178DF18
:1021C900123D2578DB120B7C900004EE8FF012098A
:1021D900A178DFE22406FF18E23400FE12381278F3
:1021E900DB120B7C900006EF12084978DFE2240726
:1021F900123D2878DB120B7C900007EE8FF0120954
:10220900A178DFE22409123D2878DB120B7C9000CB
:1022190009EE8FF01209A178DFE2240BFF18E234EE
:1022290000FE12381278DB120B7C90000BEF1208BB
:102239004978DFE2240CFF18E23400FE12381278E4
:0B224900DB120B7C90000CEF02084938
:0522540078C8120B9593
:1022590012421878CBEEF208EFF278C8120B7C1212
:1022690008D2FDACF0123F4278CCE22402FF18E21A
:102279003400FE78C8120B7C900002123F3C78CCE7
:10228900E22404FF18E23400FE78C8120B7C9000A7
:1022990004123F3C78CCE22406FF18E23400FE78B1
:1022A900C8120B7C90000612080AFD1239DA78CCA4
:1022B900E22407FF18E23400FE78C8120B7C900074
:1022C90007123F3C78CCE22409FF18E23400FE787B
:1022D900C8120B7C900009123F3C78CCE2240BFF1A
:1022E90018E23400FE78C8120B7C90000B12080A21
:1022F900FD1239DA78CCE2240CFF18E23400FE78BA
:0E230900C8120B7C90000C12080AFD0239DA93
:041FE400FF120B7C61
:0B1FE80078A2EEF208EFF208120B9551
:101FF30012419D78A7EEF208EFF2E408F208F278B6
:0F200300A9E2FE08E2FFC3EE940140030220B4FD
:102012007BFE7A0179AB12219478A2E2FE08E2FFFC
:1020220078ACE26F700318E26E707978B7E230E153
:102032007378A7E2FE08E2FF78AEE26F700318E25F
:102042006E706178B8F208F278A7E2FE08E2FF78D3
:10205200B8E2FC08E2FDC39FEC9E502E78B0E22D60
:10206200FF18E23CFE12381278A4120B7C78B8E218
:10207200FC08E2F5828C8312080AB5070D78B9E2F2
:102082002401F218E23400F280BE78A7E2FE08E2F0
:10209200FF78B9E2B5070D18E2B5060878A9E2FEA5
:0420A20008E2FF222F
:1020A60078AAE22401F218E23400F20220027EFF4E
:0220B6007FFFAA
:0120B8002205
:103CB400E478C8F208F278C8E2FE08E2FFC3EE94A2
:103CC400015021124218123D2EBEFF0BBFFF08788F
:103CD400C8E2FE08E2FF2278C9E22401F218E234C5
:083CE40000F280D27EFF7FFF99
:013CEC0022B5
:0729C70078C8EEF208EFF200
:1029CE0078CC741DF208E4F278CAF208F278CAE202
:0A29DE00FE08E2FFC3EE9401504032
:1029E8007BFE7A0179CE12219478CFE2F470031835
:1029F800E2F4601F78D0E2FE08E2FF78D3E22FFF0E
:102A080018E23EFEC378CDE29F18E29E5005EEF232
:032A180008EFF2D2
:102A1B0078CBE22401F218E23400F280B378CCE2F6
:102A2B00FE08E2FFE4FCFDC004A905AA06AB07788B
:102A3B00C8E2FE08E2FFE4D0001209CEE4FB7A1CE8
:102A4B00F9F8C3120AF850057EFF7FFF2278CCE21B
:042A5B00FE08E2FF90
:012A5F002254
:0D425F00EF2DFFEE3CCF2430CF3400FE22C7
:0B0E5D0078C8EEF208EFF208120B95C7
:100E680012419D78D4EEF208EFF278D0E2FC08E265
:100E7800FD12425F78D6EEF208EFF27F5D7E001237
:100E88003D2E78D8EEF208EFF27F537E00123D2E09
:100E980078DAEEF208EFF2C39410EE940050028074
:100EA8004778D8E2FC08E2FDC39410EC94005002A5
:100EB8008036AF05AE04E4FCFDC004A905AA06AB64
:100EC8000778D6E2FE08E2FFE4D0001209CEC00699
:100ED800C00778DAE2FE08E2FBAA06E4F9F8D007D0
:100EE800D006C3120AF850057EFF7FFF227F517E8D
:100EF8000012429F78D8E2FE08E2FF7DA51239DA97
:100F080078D9E22401FF18E23400FE7D011239DAB3
:100F180078D9E22402FF18E23400FE78C8E2FC081F
:100F2800E2FD123F4278D9E22404FF18E23400FEC1
:100F380078D4E2FC08E2FD123F4278D9E22406FFA9
:100F480018E23400FE78D0E2FC08E2FD123F427855
:100F5800D9E22408FF18E23400FE78D2E2FD123903
:100F6800DA78D9E22409FF18E23400FE78D3E2FDEA
:100F78001239DA78D9E2240AFF18E23400FEE4FDD7
:100F88001239DAE478DCF208F278DCE2FE08E2FFF3
:100F9800C39410EE9400502278D9E2240BFD18E295
:100FA8003400CD2FFFED3EFEE4FD1239DA78DDE2A4
:100FB8002401F218E23400F280CF78D9E2241BFF32
:100FC80018E23400FEE4FD1239DAE478DCF208F2C3
:100FD80078DCE2FE08E2FFC39410EE940050227819
:100FE800D9E2241CFD18E23400CD2FFFED3EFEE4CB
:100FF800FD1239DA78DDE22401F218E23400F280D9
:10100800CFE478DCF208F278D4E2FE08E2FF78DC7C
:10101800E2FC08E2FDC39FEC9E502C78D9E2242C18
:10102800FF18E23400CF2DCF3CFE78CA120B7C8D1E
:10103800828C8312080AFD1239DA78DDE22401F283
:1010480018E23400F280C0E478DCF208F278D0E2EA
:10105800FE08E2FFC378DDE29F18E29E503D78D992
:10106800E2242CFF18E23400FE78D5E22FFF18E2C4
:101078003EFE78DCE2FC08E2FD2FFFEC3EFE78CD78
:10108800120B7C8D828C8312080AFD1239DA78DD06
:0B109800E22401F218E23400F280B202
:1010A30078D9E2242CFF18E23400FE78D5E22FFF32
:1010B30018E23EFE78D1E22F79DFF318E23E19F30E
:1010C300E478E0F208F278DCF208F278D0E2FE0885
:1010D300E2FF78DCE2FC08E2FDC39FEC9E5033782C
:1010E300CD120B7C8D828C8312080AFD7C0078DD87
:1010F300E22401FF18E23400FE12086B78E1E22FCC
:10110300F218E23EF278DDE22401F218E23400F252
:1011130080B978DEE2FE08E2FF08E2FC08E2FD1295
:101123003F4278DFE22402FF18E23400FE7D011221
:1011330039DA78DFE22403FF18E23400FE7D03127C
:0211430039DA97
:1011450078D6E2FE08E2FF78D9E22FF218E23EF205
:0C115500E2FC08E2FD7F5D7E00123F42DC
:101161007F577E00123D2E78DEEEF208EFF27F5BB4
:101171007E00123D2E78E0EEF208EFF278D6E2FC26
:1011810008E2FD78DFE22DF218E23CF278D8E2FCC9
:1011910008E2FDD39FEC9E400778E0ECF208EDF207
:1011A10078DEE2FC08E2FD7F577E00123F4278E0E4
:1011B100E2FC08E2FD7F5B7E00123F4278DAE2FE4C
:1011C10008E2FFD39400EE9400404278DEE2FC088E
:1011D100E2FDEF9DFDEE9CFC7F597E00123F4278BF
:1011E100DEE2FE08E2FF7C007D64120BF7C006C060
:1011F1000778DAE2FE08E2FBAA06E4F9F8D007D0A4
:0D12010006120A66AD077F5F7E001239DA23
:10120E0078D6E2FE08E2FFC378D9E29FFF18E29E8D
:01121E00FED1
:01121F0022AC
:07386300E2FE08E2FF7BFE1C
:10386A00788D120B95788BEEF208EFF2C39410EE76
:10387A009400500280167F517E0012429F788BE29C
:10388A00FE08E2FF123812EF64A560057EFF7FFF93
:10389A0022788CE22406123D28788D120B7CEE8F5A
:0A38AA00F0120982788C123D2522ED
:103F8C0078C8EEF208EFF2C39410EE940040177F5D
:103F9C00517E0012429F78C9E22401FF18E23400DE
:073FAC00FEE4FD1239DA22E8
:073AF0007873EEF208EFF21B
:103AF7007BFE7A0179751221947876E2F4700318C7
:103B0700E2F460287881E230E10A787CE2FE08E29C
:103B1700FF123F8C7F507E0012429F7873E2FE08AF
:0C3B2700E2FF12421874FFFDFC123F4246
:013B3300226F
:0C2AF40078CA120B9578C8EEF208EFF2D9
:102B0000C39410EE940050037F00227F517E001288
:102B1000429F78C8E2FE08E2FF123812EF64A56017
:102B2000037F002278C9123D2578CFEEF208EFF23C
:102B3000E408F208F278CDE2FE08E2FFC378D2E2C0
:102B40009F18E29E503D78C9E2242CFF18E2340021
:102B5000FE78D0E22FFF18E23EFE78D1E2FC08E2D8
:102B6000FD2FFFEC3EFE78CA120B7C8D828C831207
:102B7000080AFD1239DA78D2E22401F218E23400B0
:052B8000F280B27F01AC
:012B8500222D
:033BFB00120B7C2E
:103BFE00C003C002C0017BFF7A177984787E120B56
:103C0E0095D001D002D0031237CFEF4E60127878E4
:103C1E00120B7C7889120B957875120B7C022D2D68
:0E3C2E0078751226987878120B7C123768226F
:0C12200078A2120B9578A5ECF208EDF214
:10122C0078A9120B7C12419D78BEEEF208EFF27891
:10123C00A7E2FD08E278C0CDF208EDF2EF4E700E99
:10124C007BFF7A1779807D04123EC87F042278A830
:10125C00E2F4700318E2F460030212F7123CB47863
:10126C00C0EEF208EFF2BEFF11BFFF0E7BFF7A1744
:10127C0079807D08123EC87F08227F507E00124282
:10128C009F78BEE2FE08E2FF1229C778C2EEF20890
:0B129C00EFF2BEFF06BFFF030213923B
:1012A700E478C6F208F278BEE2FE08E2FF78C6E20A
:1012B700FC08E2FDC39FEC9E502C78C3E22DFF187B
:1012C700E23CFE78A9120B7C78C6E2FC08E2F582C4
:1012D7008C8312080AFD1239DA78C7E22401F21862
:0612E700E23400F280C0B9
:1012ED00E478BCF2087402F2805A78A77A0179B1D9
:1012FD0012218D78AFE2FE08E2FF78BBE2B5072739
:10130D0018E2B5062278B8E2FE08E2FF78AC120BBF
:10131D007C78AFE2FD08E278CDCDF208EDF2122A2D
:10132D00F4EF60037F002278B5E2FF08E278C2CFC8
:10133D00F208EFF278BDE230E10A78B8E2FE08E299
:10134D00FF123F8C78A2120B7C1208D2FFAEF07800
:10135D00AC120B7C78CD120B9578AFE2FD08E278DC
:10136D00D0CDF208EDF278BCE278D2F2087402F238
:10137D0078A9120B7C120E5D78C4EEF208EFF2BE66
:10138D00FF11BFFF0E7BFF7A1779807D06123EC8D5
:10139D007F062278A2120B7C1208D2FF78B1E5F0FD
:1013AD00F208EFF278BEE2FF08E278B3CFF208EF71
:1013BD00F278C2E2FF08E278B5CFF208EFF20874D6
:1013CD0051F278C4E2FF08E278B8CFF208EFF27874
:1013DD00AFE2FF08E278BACFF208EFF27F507E005D
:1013ED0012429F78C0E2FE08E2FF7BFE7A0179B1DE
:1013FD0012225478A8E2B4FF1E18E2B4FF1978A2A5
:10140D00120B7C900017E475F00112093578A5E2F6
:09141D00FE08E2FF1220C07F006E
:0114260022A3
:052546007837120B952F
:10254B00E94A600C7837120B7C12419DEF4E700AF2
:10255B007BFF7A1779807D04802D7837120B7C12E4
:10256B003F64EF600A7BFF7A1779807D0B8018122E
:10257B003AAC785FEEF208EFF2BEFF11BFFF0E7BB5
:10258B00FF7A1779807D08123EC87F00221237111F
:10259B00783AEEF208EFF27837120B7C7864120B74
:1025AB00957BFE7A01793A122E35E47850F208F2D7
:1025BB0008F2087410F208E4F208F208F2785F7A75
:1025CB0001793A1220B97BFF7A177986123FFF788F
:1025DB003AE2FE08E2FF12348A7BFF7A17797D120A
:0425EB003FFF7F012E
:0125EF0022C9
:0525F000783D120B957F
:1025F5007846120B7C12419D7870EEF208EFF27866
:1026050040120B7C7875120B957BFE7A017949781F
:1026150078120B95783D123BFB786EEEF208EFF2DF
:10262500BEFF0DBFFF0A7BFF7A1779807D09801BEE
:102635007849E2FE08E27843121FE4EFF47002EEF7
:10264500F4600E7BFF7A1779807D0C123EC87F00FF
:1026550022786EE2FC08E2FD74FF78A7F208F278B2
:1026650043120B7C78A9120B957846120B7C78AC3B
:10267500120B957870E2FF08E278AFCFF208EFF21F
:102685007BFE7A017949121220EF70047F018002E6
:022695007F00C4
:012697002220
:071B12007872EEF208EFF219
:101B1900E47876F208F27874F208F27874E2FE0852
:0B1B2900E2FFC3EE94014003021C2504
:101B34007BFE7A0179781221947872E2FE08E2FF42
:101B44007879E26F700318E26E6003021C177884E0
:101B5400E220E103021C17D37877E2940018E294A0
:101B64000040097BFF7A17798C123FFFE47885F2F5
:101B740008F2787AE2FE08E2FF7885E2FC08E2FDEA
:101B8400C39FEC9E501C787DE22DFF18E23CFE12B0
:101B940038121242A87886E22401F218E23400F2E4
:101BA40080D07BFF7A17798E123FFF787F7A017994
:101BB400871238637889EEF208EFF2BEFF05BFFFA3
:101BC400028045E47885F208F27887E2FE08E2FFB5
:101BD4007885E2FC08E2FDC39FEC9E502B7880E2FE
:101BE400242CFF18E23400FE788AE22FFF18E23E2C
:101BF400CF2DCF3CFE1238121242A87886E224017F
:101C0400F218E23400F280C17877E22401F218E29B
:031C14003400F2A7
:0E1C17007875E22401F218E23400F2021B2478
:011C2500229C
:05335500785A120B95EF
:10335A00C003C002C0017BFE7A01795D7884120B3A
:10336A0095D001D002D003123A217BFF7A177990C7
:10337A00123FFF7BFE7A01795D123FFF7BFF7A17CE
:10338A007992123FFF785A120B7C1208D2FFAEF0E4
:10339A0012348A7BFF7A177994123FFF785A120BFC
:1033AA007C1208D2FFAEF0121B127BFF7A177997B4
:0333BA00023FFFD0
:0738B4007862EEF208EFF26A
:1038BB00E408F208F27864E2FE08E2FFC3EE94013A
:0238CB00503279
:1038CD007BFE7A0179661221947862E2FE08E2FFAE
:1038DD007867E2B5070F18E2B5060A7864E2FE08CC
:0538ED00E2FF123AF0B9
:0D38F2007865E22401F218E23400F280C192
:0138FF0022A6
:10321200E47858F208F27BFF7A177986123FFFE4CE
:103222007856F208F27856E2FE08E2FFC3EE940105
:1032320050427BFE7A017931121C26EF6029D37845
:1032420059E2940018E2940040097BFF7A177999B9
:10325200123FFF7BFE7A0179311233557859E2240D
:1032620001F218E23400F27857E22401F218E23453
:0D32720000F280B17BFF7A17797D023FFFEB
:05319D007834120B95CF
:1031A200783AE27837600E1226987BFE7A01793BF4
:1031B2001237688018120B7C7875120B957BFE7A99
:1031C20001793B7878120B957834123BFB7860EEEC
:1031D200F208EFF27861E2B4FF0F18E2B4FF0A7B63
:1031E200FF7A1779807D098023783BE2FE08E2FFAF
:1031F2001238B47F507E0012429F7860E2FE08E2ED
:0F320200FF12365F7BFF7A17799BE4FD123EC8FF
:01321100229A
:052317007831120B9566
:10231C00E94A600C7831120B7C12419DEF4E700B28
:10232C007BFF7A1779807D040223D67838E2D39428
:10233C000574809480400B7BFF7A1779807D0D02A9
:10234C0023D67838E270037402F27F507E0012427A
:10235C009FE4FBFD7C20FFFE123B347BFE7A01796F
:10236C0039123C7B7831120B7C7864120B957BFE16
:10237C007A01793912327F7834120B7C7864120B23
:10238C00957BFE7A017939122DB27837E2783AF2E0
:10239C0018E24401F27BFE7A017939121D2C783453
:1023AC00120B7C7864120B957838E27867F27831EE
:1023BC00120B7C1219FE785B7401F27859F20874D6
:0D23CC002CF27BFF7A17799BE4FD123EC8CE
:0123D90022E1
:0B4278007BFF7A17799BE4FD023EC833
:10142700E47834F208F208F21242357832EFF2200B
:10143700E0157BFF7A1779A2123FFF7BFF7A1779B6
:10144700AA123FFF0215DDE47831F27831E2FF7E20
:1014570000C39412748094805019EF243CFFEE333C
:10146700FE1238127831E22437F8EFF27831E204CD
:07147700F280D8E47849F28D
:10147E00786FF208F2786FE2FE08E2FFC3EE940195
:10148E00506A7BFE7A01794A121C26EF605178343D
:10149E00E204F2E47871F208F27871E2FE08E2FFFB
:0614AE00C3EE9401503969
:1014B4007BFE7A017973122194784AE2FE08E2FFF6
:1014C4007874E2B5071618E2B50611787FE230E1C8
:0C14D4000B7836E22401F218E23400F23A
:1014E0007872E22401F218E23400F280BA7870E2F5
:0A14F0002401F218E23400F28089B2
:1014FA007F4E7E001238127833EFF27BFF7A17792B
:10150A00B1123FFF7BFE7A017937123FFF7BFF7AE8
:10151A0017797B123FFF7BFF7A1779AA123FFF7B6D
:10152A00FF7A17797B123FFF7832E27BFF30E306BE
:10153A007A1779B780047A1779BF123FFF7BFF7A4F
:10154A0017797B123FFF12424312348A7BFF7A17C4
:10155A00797B123FFF7834E2FF7E0012348A7BFFE8
:10156A007A17797B123FFF7835E2FE08E2FF1234E0
:10157A008A7BFF7A17797B123FFF7833E224FE6079
:10158A000D14601214601714601C240470207BFF71
:10159A007A1779C8801E7BFF7A1779CC80167BFF71
:1015AA007A1779D0800E7BFF7A1779D680067BFF6F
:1015BA007A1779DA123FFF7BFF7A17797B123FFF9E
:1015CA007F507E00123812EF7F0033333354F8FE17
:0C15DA0012348A7BFF7A17797D123FFFE4
:0115E60022E2
:10413E007BFF7A1779DE123FFF7858E2FF7E00127E
:0B414E00348A7BFF7A17797D023FFF67
:102FBA007BFF7A1779E6123FFF7F537E00123D2E80
:102FCA0012348A7BFF7A17797B123FFF7F577E0084
:102FDA00123D2E12348A7BFF7A17797B123FFF7FCC
:102FEA00597E00123D2E12348A7BFF7A17797B12A2
:102FFA003FFF7F5B7E00123D2E12348A7BFF7A17D9
:10300A00797B123FFF7F5D7E00123D2E12348A7B50
:10301A00FF7A17797B123FFF7F5F7E001238127E9C
:0D302A000012348A7BFF7A17797D023FFF88
:103C3C007BFF7A1779ED123FFF7BFF7A1779AA1277
:103C4C003FFF7BFF7A17797B123FFF7BFF7A177957
:103C5C00F6123FFF7BFF7A17797B123FFF7BFF7ACF
:0F3C6C001779FB123FFF7BFF7A17797D023FFF2D
:053A67007831120B95FF
:103A6C007BFE7A017934121E207831120B7C78643B
:103A7C00120B957BFE7A017934122DB27834E24424
:103A8C0009F27BFE7A017934121D2C785B7401F2F9
:103A9C007859F208742CF27BFF7A187900023FFFF8
:053549007831120B9522
:10354E007BFE7A017934121E207831120B7C786260
:10355E00120B957BFE7A017934122A60785CEFF2B9
:10356E006402700F7BFF7A187909123FFF785B7443
:10357E0001F222785CE26014785B7401F27859F201
:10358E0008742CF27BFF7A187900800AE4785BF2DB
:09359E007BFF7A187912123FFF3D
:0135A7002201
:104086007BFE7A017931121E207831E24408F27BF8
:10409600FE7A017931121D2C7BFF7A187900023FD6
:0140A600FF1A
:103FD9007BFE7A017931121E207831E254F7F27BA7
:103FE900FE7A017931121D2C785B7401F27BFF7A1C
:063FF900187900023FFFF1
:1041C500E4785BF27859F208F27BFF7A18790002FD
:0241D5003FFFAA
:0536B9007831120B95B1
:1036BE007BFE7A017937121E207831120B7C7862EC
:1036CE00120B957BFE7A017937122A60EF70087B18
:1036DE00FF7A18791280287834120B7C7864120BDA
:1036EE00957BFE7A017937122DB27837E24408F2D3
:1036FE007BFE7A017937121D2C7BFF7A1879001226
:02370E003FFF7B
:013710002296
:10342400C003C002C0017BFF7A18791B787E120B9F
:0E34340095D001D002D0031237CFEF4E603E8C
:103442007BFE7A017931121E207831E254F7F2E4E0
:103452007859F27859E2FFC3941074809480500D29
:1034620074352FF8E4F27859E204F280E67BFE7AB2
:0C347200017931121D2C7BFF7A187900C3
:0C347E0080067BFF7A187912123FFF22B3
:103CED0078587402F2C003C002C0017BFF7A1879C4
:103CFD0024787E120B95D001D002D0031237CFEF6E
:103D0D004E6005124251800B7BFF7A1779807D043E
:083D1D00123EC8E47858F222BE
:0E425100123EEDEF6007123212E47858F222AE
:0518E1007831120B95A7
:1018E600E47870F208F2FD7F02123EF1EF70030217
:1018F60019FD7831120B7C12269B7BFE7A01793416
:10190600123768BEFF09BFFF06123EC00219F97BF7
:10191600FE7A0179597884120B957A017934123A54
:10192600217BFF7A177986123FFF7834E2FE08E2C0
:10193600FF12348A7BFF7A177992123FFF7BFE7A79
:10194600017959123FFF7BFF7A177999123FFFE41D
:10195600786EF208F2786EE2FE08E2FFC3EE9401BA
:0519660040030219F02E
:10196B007BFE7A0179721221947834E2FE08E2FF51
:10197B007873E26F700318E26E705C787EE230E190
:10198B0056D37871E2940018E2940040097BFF7AF9
:10199B00177999123FFFE4787FF208F27874E2FE30
:1019AB0008E2FF787FE2FC08E2FDC39FEC9E501C2F
:1019BB007877E22DFF18E23CFE1238121242A8781B
:1019CB0080E22401F218E23400F280D07871E22434
:0719DB0001F218E23400F2F2
:1019E200786FE22401F218E23400F202195B7BFF05
:0B19F2007A17797D123FFFE47858F26D
:0119FD0022C7
:0232EA00783139
:1032EC00123EEAEF60627BFE7A0179347889120B28
:1032FC00957831120B7C122D2DBEFF08BFFF0512E5
:10330C003EC080407BFE7A0179597884120B957A05
:10331C00017934123A217BFF7A177986123FFF7BB1
:10332C00FE7A017959123FFF7BFF7A18792A123FF6
:10333C00FF7834E2FE08E2FF12348A7BFF7A1779B9
:08334C007D123FFFE47858F206
:013354002256
:021F0E00783128
:101F1000123EEAEF7003021FE37831120B7C1226A7
:101F20009B7BFE7A017937123768BEFF0DBFFF0A2F
:101F30007BFF7A1779807D0980497837E2FE08E2D5
:101F40007834121FE4785CEEF208EFF2BEFF0DBFAA
:101F5000FF0A7BFF7A1779807D0A8027785C7A01F7
:101F6000795E12218D78657A01796D123863786F08
:101F7000EEF208EFF2BEFF10BFFF0D7BFF7A17797C
:101F8000807D0A123EC880577BFF7A177986123F00
:101F9000FFE4786BF208F2786DE2FE08E2FF786BFE
:101FA000E2FC08E2FDC39FEC9E502B7866E2242CF5
:101FB000FF18E23400FE7870E22FFF18E23ECF2DCA
:101FC000CF3CFE1238121242A8786CE22401F218BB
:101FD000E23400F280C17BFF7A17797D123FFFE483
:031FE0007858F23C
:011FE30022DB
:05292A007831120B954D
:10292F007D017F03123EF1EF70030229C678311249
:10293F000B7C12269B7BFE7A01793A123768785FFF
:10294F00EEF208EFF2BEFF08BFFF05123EC0806334
:10295F007837120B7C12419D7861EEF208EFF27816
:10296F003AE2FE08E2FF7834120B7C121FE8785F20
:10297F00E2FC08E2FD78A7EEF208EFF27834120BD2
:10298F007C78A9120B957837120B7C78AC120B95CB
:10299F007861E2FF08E278AFCFF208EFF27BFE7AC0
:1029AF0001793A121220EF700A7BFF7A17799BFD9B
:0729BF00123EC8E47858F253
:0129C60022EE
:05273F007831120B953A
:102744007D017F03123EF1EF70030227E47831121A
:102754000B7C12269B7BFE7A01797B12376878A06A
:10276400EEF208EFF2BEFF08BFFF05123EC0806C18
:102774007BFE7A01793A78A5120B9578A87440F219
:102784007837120B7C122F3B787AEFF208E2FE08BE
:10279400E2FF7834120B7C121FE878A0E2FC08E216
:1027A400FD78A7EEF208EFF27834120B7C78A912C8
:1027B4000B957BFE7A01793A78AC120B95787AE224
:1027C400FF78AFE4F208EFF27A01797B121220EF7E
:1027D400700A7BFF7A17799BFD123EC8E47858F2A1
:0127E40022D2
:104122007831120B957D017F04123EF1EF600C781D
:0C41320031120B7C122546E47858F22272
:10394B007831120B957D017F04123EF1EF603878D0
:10395B0034120B7C7840120B957837120B7C784322
:10396B00120B95783A120B7C7846120B9578311224
:10397B000B7C1225F0EF600B7BFF7A17799BE4FD34
:08398B00123EC8E47858F22254
:103E3F007831120B957D017F05123EF1EF601C78F2
:103E4F0031120B7C7837120B95783A7401F27B00A4
:0C3E5F007A00790012319DE47858F222BC
:103E6B007831120B957D017F05123EF1EF601B78C7
:103E7B0031120B7C7837120B95E4783AF27BFF7A90
:0B3E8B0017798412319DE47858F22270
:0527E5007831120B9594
:1027EA007D017F05123EF1EF7003022889783412C9
:1027FA000B7C7875120B957BFE7A01793A78781200
:10280A000B957831120B7C123BFE785FEEF208EFE3
:10281A00F2BEFF0DBFFF0A7BFF7A1779807D098020
:10282A0057783AE2FE08E2FF7837120B7C121FE86B
:10283A007861EEF208EFF2BEFF0DBFFF0A7BFF7A66
:10284A001779807D0A80317861E2FE08E2FF123A48
:10285A00F0D37852E2940018E29400400A08E22485
:10286A00FFF218E234FFF2785F7A01793A1220B95E
:0F287A007BFF7A17799BE4FD123EC8E47858F291
:01288900222C
:052C15007831120B955F
:102C1A007D017F06123EF1EF607C7831120B7C1247
:102C2A00269B7BFE7A017937123768785CEEF208C8
:102C3A00EFF2BEFF0DBFFF0A7BFF7A1779807D098D
:102C4A00804D7834120B7CEA494B603B7834120B86
:102C5A007C12419DD3EF9400EE9400402A783412FE
:102C6A000B7C7864120B957BFE7A017937122E352C
:102C7A007F507E0012429F785CE2FE08E2FF7BFEF4
:102C8A007A0179371220C07BFF7A17799BE4FD120B
:062C9A003EC8E47858F288
:012CA0002211
:0523DA007831120B95A3
:1023DF007D017F06123EF1EF7003022490783112D7
:1023EF000B7C12269B7BFE7A01793A123768785F55
:1023FF00EEF208EFF2BEFF0DBFFF0A7BFF7A1779EF
:10240F00807D098024783AE2FE08E2FF7834120BCF
:10241F007C121FE87861EEF208EFF2BEFF10BFFFEB
:10242F000D7BFF7A1779807D0A123EC8804F78376F
:10243F00120B7C12419D785FE2FC08E2FD08E2FB83
:10244F0008E278A7CBF208EBF27834120B7C78A96C
:10245F00120B957837120B7C78AC120B9578AFEE88
:10246F00F208EFF27BFE7A01793A121220EF600246
:10247F00800B7BFF7A17799BE4FD123EC8E47858F6
:01248F00F25A
:012490002229
:1041D700E4FD7F07123EF1EF6007123212E47858D0
:0241E700F222C2
:052EB8007831120B95BA
:102EBD00E4FD7F07123EF1EF60737831120B7C1247
:102ECD00269B7BFE7A017934123768BEFF08BFFF5F
:102EDD0005123EC080537BFE7A0179597884120B1E
:102EED00957A017934123A217BFF7A18792F123FA6
:102EFD00FF7BFE7A017959123FFF7BFF7A1779929A
:102F0D00123FFF7834E2FE08E2FF12348A7BFF7A2B
:102F1D00177994123FFF7834E2FE08E2FF121B127C
:0D2F2D007BFF7A187936123FFFE47858F2E6
:012F3A002274
:1035A80078587407F27BFF7A177986123FFF7F00FD
:1035B8007E2012348A7BFF7A17797B123FFF7F5374
:1035C8007E00123D2E12348A7BFF7A17797B123FD8
:1035D800FF7F577E00123D2E12348A7BFF7A1779BF
:1035E8007B123FFF7F597E00123D2E12348A7BFFEB
:0C35F8007A17797D123FFFE47858F22228
:1040C7007D017F01123EF1EF60151241B21242836A
:1040D7007BFF7A17799BE4FD123EC8E47858F222F9
:053037007831120B9539
:10303C007D017F01123EF1EF606A7834120B7C78CF
:10304C0075120B957BFE7A0179377878120B95788F
:10305C0031120B7C123BFE785CEEF208EFF2BEFFF5
:10306C000DBFFF0A7BFF7A1779807D09802F783797
:10307C00E2FE08E2FF1238B47F507E0012429FE459
:10308C00784EF208F2785CE2FE08E2FF7BFE7A01F1
:10309C0079371220C07BFF7A17799BE4FD123EC86A
:0430AC00E47858F27A
:0130B00022FD
:10000300C003C002C0017BFE7A0179007835120B70
:10001300957838E4F208740AF2D001D002D0037D57
:100023002B1230B1781EEEF208EFF2C39402EE64A5
:1000330080948050030207F07BFF7A18793A787E28
:10004300120B957800120B7C1237CFEF4E70030220
:1000530007F07820E4F2087402F2781EE2FE08E268
:10006300FF08E2FC08E2FDC39FEE6480F8EC6480C5
:10007300985029ED75F003A42400F8120B7C12317B
:1000830028782008E275F003A42400F8120B957871
:1000930021E22401F218E23400F280BE781EE2FE6F
:1000A30008E2FFC39403EE6480948040077806124D
:1000B3000B7C80067B007A0079007822120B95C3B3
:1000C300EF9404EE6480948040077809120B7C80DF
:1000D300067B007A0079007825120B95781EE2FEE4
:1000E30008E2FFC39405EE648094804007780C1205
:1000F3000B7C80067B007A0079007828120B95C36D
:10010300EF9406EE648094804007780F120B7C8096
:10011300067B007A007900782B120B95C3781FE2D7
:10012300940718E26480948040077812120B7C8055
:10013300067B007A007900782E120B957BFF7A18E4
:10014300793D787E120B957803120B7C1237CFEF33
:100153004E604FC3781FE2940518E2648094804098
:100163003E7828120B7C1241F9C007C3781FE29432
:100173000618E264809480400A782B120B7C1241AB
:10018300F980027F027838EFF218D0E0F278251276
:100193000B7C7834120B957822120B7C0223170206
:1001A30007E57BFF7A187942787E120B9578031264
:1001B3000B7C1237CFEF4E60030242787BFF7A1835
:1001C3007947787E120B957803120B7C1237CFEFA9
:1001D3004E60030214277BFF7A18794C787E120B4A
:1001E300957803120B7C1237CFEF4E600302413E2A
:1001F3007BFF7A187953787E120B957803120B7C68
:100203001237CFEF4E6003022FBA7BFF7A1879596A
:10021300787E120B957803120B7C1237CFEF4E606A
:1002230003023C3C7BFF7A187961787E120B957848
:1002330003120B7C1237CFEF4E7003020368782250
:10024300120B7CEA494B70030203657825120B7C81
:10025300EA494B70030203657A1879661237C3EFD4
:100263004E70030203657BFF7A18796F787E120B59
:10027300957825120B7C1237CFEF4E601278281237
:100283000B7CEA494B60087828120B7C023A677BA7
:10029300FF7A187976787E120B957825120B7C12EB
:1002A30037CFEF4E60127828120B7CEA494B600877
:1002B3007828120B7C0235497BFF7A18797D787E8A
:1002C300120B957825120B7C1237CFEF4E60030289
:1002D30040867BFF7A187984787E120B95782512F5
:1002E3000B7C1237CFEF4E6003023FD97BFF7A18A6
:1002F300798C787E120B957825120B7C1237CFEF11
:100303004E60030241C57BFF7A187996787E120B03
:10031300957825120B7C1237CFEF4E601C7828128C
:100323000B7CEA494B6012782B120B7C7834120B4E
:10033300957828120B7C0236B97BFF7A18799D7861
:100343007E120B957825120B7C1237CFEF4E60127D
:100353007828120B7CEA494B60087828120B7C0240
:1003630034240207E57BFF7A1879A3787E120B9574
:100373007803120B7C1237CFEF4E70030204207800
:1003830022120B7CEA494B604F1237BFEF4E604895
:100393007825120B7CEA494B60297BFF7A1879A8F0
:1003A300787E120B957825120B7C1237CFEF4E60B7
:1003B300127828120B7CEA494B60087828120B7CD0
:1003C3000232EA7825120B7CEA494B600878251241
:1003D3000B7C0218E10242517822120B7CEA494B52
:1003E30060337BFF7A1879AD1237C5EF4E602678FC
:1003F30025120B7CEA494B601C7828120B7CEA49D6
:100403004B60127828120B7C7834120B95782512E6
:100413000B7C021F0E7822120B7C023CED7BFF7AD1
:100423001879B1787E120B957803120B7C1237CFB3
:10043300EF4E70030204C87822120B7CEA494B602A
:10044300477BFF7A1879B71237C5EF4E603A7825A4
:10045300120B7CEA494B60307828120B7CEA494B3B
:100463006026782B120B7CEA494B601C7828120B10
:100473007C7834120B95782B120B7C7837120B9502
:100483007825120B7C02273F7822120B7CEA494B1A
:1004930060307825120B7CEA494B60267828120BD2
:1004A3007CEA494B601C7825120B7C7834120B953F
:1004B3007828120B7C7837120B957822120B7C026A
:1004C300292A0207E57BFF7A18796F787E120B954C
:1004D3007803120B7C1237CFEF4E7003020581783D
:1004E30022120B7CEA494B602D1237BFEF4E602678
:1004F3007825120B7CEA494B601C7828120B7CEAA6
:10050300494B60127828120B7C7834120B957825AE
:10051300120B7C0241227822120B7CEA494B605B6E
:100523007BFF7A1879AD1237C5EF4E604E782512EE
:100533000B7CEA494B60447828120B7CEA494B60F8
:100543003A782B120B7CEA494B6030782E120B7CE5
:10055300EA494B60267828120B7C7834120B957885
:100563002B120B7C7837120B95782E120B7C783A72
:10057300120B957825120B7C02394B0207E57BFFA2
:100583007A1879BB787E120B957803120B7C12379D
:10059300CFEF4E70030206457822120B7CEA494BDB
:1005A300604C1237BFEF4E60457825120B7CEA4949
:1005B3004B60297BFF7A1879A8787E120B957825F2
:1005C300120B7C1237CFEF4E60127828120B7CEAA5
:1005D300494B60087828120B7C023E6B7825120B7E
:1005E3007CEA494B60087825120B7C023E3F782257
:1005F300120B7CEA494B60477BFF7A1879AD1237BF
:10060300C5EF4E603A7825120B7CEA494B6030788F
:1006130028120B7CEA494B6026782B120B7CEA49A3
:100623004B601C7828120B7C7834120B95782B12B4
:100633000B7C7837120B957825120B7C0227E50289
:1006430007E57BFF7A1879C2787E120B957803123F
:100653000B7C1237CFEF4E70030206E07822120BA9
:100663007CEA494B60231237BFEF4E601C7825129A
:100673000B7CEA494B60127828120B7C7834120BFE
:10068300957825120B7C022C157822120B7CEA49F3
:100693004B60477BFF7A1879AD1237C5EF4E603A4E
:1006A3007825120B7CEA494B60307828120B7CEAE0
:1006B300494B6026782B120B7CEA494B601C782847
:1006C300120B7C7834120B95782B120B7C78371233
:1006D3000B957825120B7C0223DA0207E57BFF7A60
:1006E3001879C9787E120B957803120B7C1237CFD9
:1006F300EF4E700302077B7822120B7CEA494B60B2
:100703005A7BFF7A1879CD1237C5EF4E604D7825A5
:10071300120B7CEA494B60437BFF7A187924787E7D
:10072300120B957825120B7C1237CFEF4E60030224
:1007330041D77BFF7A1879AD787E120B9578251215
:100743000B7C1237CFEF4E60127828120B7CEA49EC
:100753004B60087828120B7C022EB87822120B7C8F
:10076300EA494B60107BFF7A1879D11237C5EF4EF7
:1007730060030235A80207E57BFF7A1879D6787EF5
:10078300120B957803120B7C1237CFEF4E60537820
:1007930022120B7CEA494B60107BFF7A1879DD1239
:1007A30037C5EF4E60030240C77822120B7CEA493B
:1007B3004B602D1237BFEF4E60267825120B7CEA73
:1007C300494B601C7828120B7CEA494B601278284D
:1007D300120B7C7834120B957825120B7C02303780
:0D07E30080007BFF7A1779807D04123EC8EC
:0107F00022E6
:03000000022CA12E
:0C2CA100787FE4F6D8FD758140022CE835
:1007F100BB010689828A83E0225002E722BBFE0206
:09080100E32289828A83E4932238
:10080A00BB010CE58229F582E5833AF583E02250A3
:10081A0006E92582F8E622BBFE06E92582F8E222ED
:0D082A00E58229F582E5833AF583E4932207
:10083700BB010689828A83F0225002F722BBFE01A0
:02084700F3229A
:10084900F8BB010DE58229F582E5833AF583E8F0E5
:10085900225006E92582C8F622BBFE05E92582C891
:02086900F22279
:10086B00EF8DF0A4A8F0CF8CF0A428CE8DF0A42EA1
:02087B00FE225B
:10087D00BC000BBE0029EF8DF084FFADF022E4CC5F
:10088D00F875F008EF2FFFEE33FEEC33FCEE9DEC28
:10089D00984005FCEE9DFE0FD5F0E9E4CEFD22ED6E
:1008AD00F8F5F0EE8420D21CFEADF075F008EF2FB8
:1008BD00FFED33FD4007985006D5F0F222C398FDA9
:0508CD000FD5F0EA2246
:1008D200BB010A89828A83E0F5F0A3E022500687F1
:1008E200F009E71922BBFE07E3F5F009E3192289B3
:0B08F200828A83E493F5F074019322E6
:1008FD00BB0110E58229F582E5833AF583E0F5F039
:10090D00A3E0225009E92582F886F008E622BBFE15
:10091D000AE92582F8E2F5F008E222E5832AF5835B
:08092D00E993F5F0A3E9932220
:10093500BB010DC58229C582C5833AC583020DEB6E
:100945005011C58229F808E5F026F618F5F0E5827C
:1009550036F622BBFE11C58229F808E225F0F5F02E
:10096500F218E23582F222F8E58229F582E5832A3A
:0D097500F58374019325F0F5F0E49338222A
:10098200BB010A89828A83F0E5F0A3F0225006F7C0
:0F09920009A7F01922BBFE06F3E5F009F31922BD
:1009A100F8BB0111E58229F582E5833AF583E8F088
:1009B100E5F0A3F0225009E92582C8F608A6F02245
:0D09C100BBFE09E92582C8F2E5F008F2222C
:0D09CE00EF2BFFEE3AFEED39FDEC38FC2278
:1009DB00E88FF0A4CC8BF0A42CFCE98EF0A42CFCBB
:1009EB008AF0EDA42CFCEA8EF0A4CDA8F08BF0A439
:1009FB002DCC3825F0FDE98FF0A42CCD35F0FCEB98
:100A0B008EF0A4FEA9F0EB8FF0A4CFC5F02ECD395C
:0F0A1B00FEE43CFCEAA42DCE35F0FDE43CFC22C9
:100A2A0075F008758200EF2FFFEE33FECD33CDCC83
:100A3A0033CCC58233C5829BED9AEC99E582984006
:100A4A000CF582EE9BFEED9AFDEC99FC0FD5F0D6E3
:100A5A00E4CEFBE4CDFAE4CCF9A88222B800C1B90D
:100A6A000059BA002DEC8BF084CFCECDFCE5F0CB4B
:100A7A00F97818EF2FFFEE33FEED33FDEC33FCEB84
:100A8A0033FB10D703994004EB99FB0FD8E5E4F93F
:100A9A00FA227818EF2FFFEE33FEED33FDEC33FC2C
:100AAA00C933C910D7059BE99A4007EC9BFCE99A20
:100ABA00F90FD8E0E4C9FAE4CCFB2275F010EF2F65
:100ACA00FFEE33FEED33FDCC33CCC833C810D70765
:100ADA009BEC9AE899400AED9BFDEC9AFCE899F8A0
:0E0AEA000FD5F0DAE4CDFBE4CCFAE4C8F92233
:100AF800EB9FF5F0EA9E42F0E99D42F0E89C45F054
:010B080022CA
:0C0B0900E2FC08E2FD08E2FE08E2FF2228
:0D0B1500E2FB08E2F908E2FA08E2CBF82260
:0C0B2200ECF208EDF208EEF208EFF2220F
:100B2E00D083D082E493F208740193F20874029396
:090B3E00F208740393F2740473CD
:100B4700BB010DE58229F582E5833AF583020E1A8A
:100B57005007E92582F8020E01BBFE07E92582F856
:040B6700020B2E222D
:100B6B00F5F0C582A4C582C5F0C583A42583F583A2
:010B7B002257
:090B7C00E2FB08E2FA08E2F922AA
:100B8500FAE2FB0808E2F925F0F218E2CA3AF22285
:090B9500EBF208EAF208E9F22291
:100B9E00BB0120E58229F582E5833AF583D0F0D0BA
:100BAE00E0F8D0E0F9D0E0FAD0E0FBE8C0E0C0F029
:100BBE00020E545018E92582F8D083D082D0E0F985
:100BCE00D0E0FAD0E0FBC082C083020E4BBBFE1811
:100BDE00E92582F8D083D082D0E0F9D0E0FAD0E0D7
:090BEE00FBC082C083020B9522BA
:100BF700EC8EF0A4CCC5F0CCCDF8EFA4CEC5F02D8B
:100C0700FDE43CFCE8A42EC8C5F03DFDE43CFCEF48
:0D0C1700A4FFE5F028FEE43DFDE43CFC22D6
:100C2400E3F5F009E208B5F06D606B80F3E3F5F0ED
:100C340009E608B5F060605E80F387F009E608B560
:100C4400F054605280F487F009E208B5F048604639
:100C540080F488828C8387F009E0A3B5F03860368D
:100C640080F488828C8387F009E493A3B5F027602D
:100C74002580F388828C83E3F5F009E0A3B5F016B0
:100C8400601480F388828C83E3F5F009E493A3B5C0
:100C9400F004600280F2020D4F808580E7808E8030
:100CA400D2803C8015806C807E809B80B5808B8058
:100CB400A1804F8070803A020D5B89828A83ECFAAE
:100CC400E493F5F0A3C8C582C8CCC583CCE493A350
:100CD400C8C582C8CCC583CCB5F070606E80E1898C
:100CE400828A83E493F5F0A3E208B5F05E605C8049
:100CF400F289828A83E0F5F0A3E608B5F04D604BF3
:100D040080F389828A83E0F5F0A3E208B5F03C60C1
:100D14003A80F389828A83E493F5F0A3E608B5F078
:100D24002A602880F2805389828A83ECFAE493F55E
:100D3400F0A3C8C582C8CCC583CCE0A3C8C582C80B
:100D4400CCC583CCB5F004600280E27FFFB5F0022D
:100D54000F2240027F012289828A83ECFAE0F5F0B7
:100D6400A3C8C582C8CCC583CCE0A3C8C582C8CCFF
:100D7400C583CCB5F0D560D380E389828A83ECFA4D
:100D8400E0F5F0A3C8C582C8CCC583CCE493A3C85E
:100D9400C582C8CCC583CCB5F0B160AF80E288F021
:100DA400ED2402B4040050A3F582EB2402B4040041
:0B0DB40050992323458223900C9D736F
:10419D00E4FFFE1207F1600C0FEF70010E09E970DC
:0541AD00F20A80EF2280
:100DBF00EF4E6012EF60010EEDBB010B89828A834B
:100DCF00F0A3DFFCDEFA2289F05007F709DFFCA958
:0C0DDF00F022BBFEFCF309DFFCA9F022AF
:102CAD00023DBBE493A3F8E493A34003F68001F245
:102CBD0008DFF48029E493A3F85407240CC8C33328
:102CCD00C4540F4420C8834004F456800146F6DFF7
:102CDD00E4800B0102040810204080903900E47E4E
:102CED00019360BCA3FF543F30E509541FFEE493EC
:102CFD00A360010ECF54C025E060A840B8E493A3B3
:102D0D00FAE493A3F8E493A3C8C582C8CAC583CADD
:102D1D00F0A3C8C582C8CAC583CADFE9DEE780BE95
:01394A00007C
:100DEB00C5F0F8A3E028F0C5F0F8E5821582700293
:060DFB001583E038F02230
:100E0100D083D082E493F608740193F608740293B8
:090E1100F608740393F6740473EF
:100E1A00A8828583F0D083D082120E31120E31124D
:100E2A000E31120E31E473E493A3C583C5F0C58372
:100E3A00C8C582C8F0A3C583C5F0C583C8C582C822
:010E4A002285
:090E4B00EBF608EAF608E9F622CC
:090E5400EBF0A3EAF0A3E9F0229F
:00000001FF
